02RETORNO01COBRANCA       00000000000000022850ASSOC COML DE SAO PAULO       237BRADESCO       0108130160000006886                                                                                                                                                                                                                                                                          020813         000001
1026052455000013100000090009902404869231844021                0000000023001952680P0000000000000000000000000902010813231844021 0000000023001952680P150813000000003500023704151  000000000000000000000000000000000000000000000000000000000000000000000000000000000000000000000000000000000000000000000                          0000000000                                                                  000002
1026052455000013100000090009902404869231844129                000000002300195268180000000000000000000000000902010813231844129 00000000230019526818150813000000001000023704151  000000000000000000000000000000000000000000000000000000000000000000000000000000000000000000000000000000000000000000000                          0000000000                                                                  000003
10260524550000131000000900099024048692318444901               000000002300195268260000000000000000000000000902010813231844490100000000230019526826120813000000000650023704151  000000000000000000000000000000000000000000000000000000000000000000000000000000000000000000000000000000000000000000000                          0000000000                                                                  000004
10260524550000131000000900099024048692318444902               000000002300195268340000000000000000000000000902010813231844490200000000230019526834120913000000000650023704151  000000000000000000000000000000000000000000000000000000000000000000000000000000000000000000000000000000000000000000000                          0000000000                                                                  000005
1026052455000013100000090009902404869231844150                000000002300195268420000000000000000000000000902010813231844150 00000000230019526842150813000000001000023704151  000000000000000000000000000000000000000000000000000000000000000000000000000000000000000000000000000000000000000000000                          0000000000                                                                  000006
1026052455000013100000090009902404869231844006                000000002300195268500000000000000000000000000902010813231844006 00000000230019526850150813000000002500023704151  000000000000000000000000000000000000000000000000000000000000000000000000000000000000000000000000000000000000000000000                          0000000000                                                                  000007
1026052455000013100000090009902404869231844077                000000002300195268690000000000000000000000000902010813231844077 00000000230019526869150813000000003000023704151  000000000000000000000000000000000000000000000000000000000000000000000000000000000000000000000000000000000000000000000                          0000000000                                                                  000008
1026052455000013100000090009902404869231844146                000000002300195268770000000000000000000000000902010813231844146 00000000230019526877150813000000001000023704151  000000000000000000000000000000000000000000000000000000000000000000000000000000000000000000000000000000000000000000000                          0000000000                                                                  000009
1026052455000013100000090009902404869231844139                000000002300195268850000000000000000000000000902010813231844139 00000000230019526885150813000000000122023704151  000000000000000000000000000000000000000000000000000000000000000000000000000000000000000000000000000000000000000000000                          0000000000                                                                  000010
1026052455000013100000090009902404869231844099                000000002300195268930000000000000000000000000902010813231844099 00000000230019526893150813000000000500023704151  000000000000000000000000000000000000000000000000000000000000000000000000000000000000000000000000000000000000000000000                          0000000000                                                                  000011
1026052455000013100000090009902404869231844056                000000002300195269070000000000000000000000000902010813231844056 00000000230019526907150813000000002500023704151  000000000000000000000000000000000000000000000000000000000000000000000000000000000000000000000000000000000000000000000                          0000000000                                                                  000012
1026052455000013100000090009902404869231844164                000000002300195269150000000000000000000000000902010813231844164 00000000230019526915150813000000002000023704151  000000000000000000000000000000000000000000000000000000000000000000000000000000000000000000000000000000000000000000000                          0000000000                                                                  000013
1026052455000013100000090009902404869231844107                000000002300195269230000000000000000000000000902010813231844107 00000000230019526923150813000000002000023704151  000000000000000000000000000000000000000000000000000000000000000000000000000000000000000000000000000000000000000000000                          0000000000                                                                  000014
1026052455000013100000090009902404869231844110                000000002300195269310000000000000000000000000902010813231844110 00000000230019526931150813000000001000023704151  000000000000000000000000000000000000000000000000000000000000000000000000000000000000000000000000000000000000000000000                          0000000000                                                                  000015
10260524550000131000000900099024048692318444882               0000000023001952694P000000000000000000000000090201081323184448820000000023001952694P300813000000000650023704151  000000000000000000000000000000000000000000000000000000000000000000000000000000000000000000000000000000000000000000000                          0000000000                                                                  000016
1026052455000013100000090009902404869231844098                000000002300195269580000000000000000000000000902010813231844098 00000000230019526958150813000000000500023704151  000000000000000000000000000000000000000000000000000000000000000000000000000000000000000000000000000000000000000000000                          0000000000                                                                  000017
1026052455000013100000090009902404869231844127                000000002300195269660000000000000000000000000902010813231844127 00000000230019526966150813000000003600023704151  000000000000000000000000000000000000000000000000000000000000000000000000000000000000000000000000000000000000000000000                          0000000000                                                                  000018
1026052455000013100000090009902404869231844141                000000002300195269740000000000000000000000000902010813231844141 00000000230019526974150813000000002000023704151  000000000000000000000000000000000000000000000000000000000000000000000000000000000000000000000000000000000000000000000                          0000000000                                                                  000019
1026052455000013100000090009902404869231844119                000000002300195269820000000000000000000000000902010813231844119 00000000230019526982150813000000001000023700099  000000000000000000000000000000000000000000000000000000000000000000000000000000000000000000000000000000000000000000000                          0000000000                                                                  000020
10260524550000131000000900099024048692318444891               000000002300195269900000000000000000000000000902010813231844489100000000230019526990120813000000000650023704151  000000000000000000000000000000000000000000000000000000000000000000000000000000000000000000000000000000000000000000000                          0000000000                                                                  000021
10260524550000131000000900099024048692318444892               000000002300195270080000000000000000000000000902010813231844489200000000230019527008120913000000000650023704151  000000000000000000000000000000000000000000000000000000000000000000000000000000000000000000000000000000000000000000000                          0000000000                                                                  000022
1026052455000013100000090009902404869231844106                000000002300195270160000000000000000000000000902010813231844106 00000000230019527016150813000000000500023704151  000000000000000000000000000000000000000000000000000000000000000000000000000000000000000000000000000000000000000000000                          0000000000                                                                  000023
1026052455000013100000090009902404869231844070                000000002300195270240000000000000000000000000902010813231844070 00000000230019527024150813000000001500023704151  000000000000000000000000000000000000000000000000000000000000000000000000000000000000000000000000000000000000000000000                          0000000000                                                                  000024
1026052455000013100000090009902404869231843970                000000002300195270320000000000000000000000000902010813231843970 00000000230019527032150813000000000500023704151  000000000000000000000000000000000000000000000000000000000000000000000000000000000000000000000000000000000000000000000                          0000000000                                                                  000025
1026052455000013100000090009902404869231844103                000000002300195270400000000000000000000000000902010813231844103 00000000230019527040150813000000001500023704151  000000000000000000000000000000000000000000000000000000000000000000000000000000000000000000000000000000000000000000000                          0000000000                                                                  000026
1026052455000013100000090009902404869231844118                000000002300195270590000000000000000000000000902010813231844118 00000000230019527059150813000000002000023704151  000000000000000000000000000000000000000000000000000000000000000000000000000000000000000000000000000000000000000000000                          0000000000                                                                  000027
1026052455000013100000090009902404869231844406                000000002300195270670000000000000000000000000902010813231844406 00000000230019527067150813000000002679023704151  000000000000000000000000000000000000000000000000000000000000000000000000000000000000000000000000000000000000000000000                          0000000000                                                                  000028
1026052455000013100000090009902404869231844016                000000002300195270750000000000000000000000000902010813231844016 00000000230019527075150813000000002000023704151  000000000000000000000000000000000000000000000000000000000000000000000000000000000000000000000000000000000000000000000                          0000000000                                                                  000029
1026052455000013100000090009902404869231844109                000000002300195270830000000000000000000000000902010813231844109 00000000230019527083150813000000002000023704151  000000000000000000000000000000000000000000000000000000000000000000000000000000000000000000000000000000000000000000000                          0000000000                                                                  000030
1026052455000013100000090009902404869231844163                000000002300195270910000000000000000000000000902010813231844163 00000000230019527091150813000000000500023704151  000000000000000000000000000000000000000000000000000000000000000000000000000000000000000000000000000000000000000000000                          0000000000                                                                  000031
1026052455000013100000090009902404869231844005                000000002300195271050000000000000000000000000902010813231844005 00000000230019527105110913000000041100023704151  000000000000000000000000000000000000000000000000000000000000000000000000000000000000000000000000000000000000000000000                          0000000000                                                                  000032
1026052455000013100000090009902404869231844004                000000002300195271130000000000000000000000000902010813231844004 00000000230019527113250913000000024700023704151  000000000000000000000000000000000000000000000000000000000000000000000000000000000000000000000000000000000000000000000                          0000000000                                                                  000033
1026052455000013100000090009902404869231844002                000000002300195271210000000000000000000000000902010813231844002 00000000230019527121110913000000011290023700099  000000000000000000000000000000000000000000000000000000000000000000000000000000000000000000000000000000000000000000000                          0000000000                                                                  000034
1026052455000013100000090009902404869231844001                0000000023001952713P0000000000000000000000000902010813231844001 0000000023001952713P110913000000030630023704151  000000000000000000000000000000000000000000000000000000000000000000000000000000000000000000000000000000000000000000000                          0000000000                                                                  000035
1026052455000013100000090009902404869231844000                000000002300195271480000000000000000000000000902010813231844000 00000000230019527148110913000000025760023704151  000000000000000000000000000000000000000000000000000000000000000000000000000000000000000000000000000000000000000000000                          0000000000                                                                  000036
1026052455000013100000090009902404869231844003                000000002300195271560000000000000000000000000902010813231844003 00000000230019527156110913000000032350023704151  000000000000000000000000000000000000000000000000000000000000000000000000000000000000000000000000000000000000000000000                          0000000000                                                                  000037
1026052455000013100000090009902404869231844162                000000002300195271640000000000000000000000000902010813231844162 00000000230019527164150813000000001000023704151  000000000000000000000000000000000000000000000000000000000000000000000000000000000000000000000000000000000000000000000                          0000000000                                                                  000038
1026052455000013100000090009902404869231844405                000000002300195271720000000000000000000000000902010813231844405 00000000230019527172150813000000000839423704151  000000000000000000000000000000000000000000000000000000000000000000000000000000000000000000000000000000000000000000000                          0000000000                                                                  000039
1026052455000013100000090009902404869231844154                000000002300195271800000000000000000000000000902010813231844154 00000000230019527180150813000000003500023704151  000000000000000000000000000000000000000000000000000000000000000000000000000000000000000000000000000000000000000000000                          0000000000                                                                  000040
1026052455000013100000090009902404869231844407                000000002300195271990000000000000000000000000902010813231844407 00000000230019527199150813000000673178823704151  000000000000000000000000000000000000000000000000000000000000000000000000000000000000000000000000000000000000000000000                          0000000000                                                                  000041
1026052455000013100000090009902404869231844136                000000002300195272020000000000000000000000000902010813231844136 00000000230019527202150813000000000500023704151  000000000000000000000000000000000000000000000000000000000000000000000000000000000000000000000000000000000000000000000                          0000000000                                                                  000042
1026052455000013100000090009902404869231844011                000000002300195272100000000000000000000000000902010813231844011 00000000230019527210150813000000001500023704151  000000000000000000000000000000000000000000000000000000000000000000000000000000000000000000000000000000000000000000000                          0000000000                                                                  000043
1026052455000013100000090009902404869231844165                000000002300195272290000000000000000000000000902010813231844165 00000000230019527229150813000000001500023704151  000000000000000000000000000000000000000000000000000000000000000000000000000000000000000000000000000000000000000000000                          0000000000                                                                  000044
10260524550000131000000900099024048692318444921               000000002300195272370000000000000000000000000902010813231844492100000000230019527237120813000000000650023704151  000000000000000000000000000000000000000000000000000000000000000000000000000000000000000000000000000000000000000000000                          0000000000                                                                  000045
10260524550000131000000900099024048692318444922               000000002300195272450000000000000000000000000902010813231844492200000000230019527245120913000000000650023704151  000000000000000000000000000000000000000000000000000000000000000000000000000000000000000000000000000000000000000000000                          0000000000                                                                  000046
1026052455000013100000090009902404869231844079                000000002300195272530000000000000000000000000902010813231844079 00000000230019527253150813000000000700023704151  000000000000000000000000000000000000000000000000000000000000000000000000000000000000000000000000000000000000000000000                          0000000000                                                                  000047
1026052455000013100000090009902404869231844408                000000002300195272610000000000000000000000000902010813231844408 00000000230019527261150813000000008186323704151  000000000000000000000000000000000000000000000000000000000000000000000000000000000000000000000000000000000000000000000                          0000000000                                                                  000048
1026052455000013100000090009902404869231844503                0000000023001952727P0000000000000000000000000902010813231844503 0000000023001952727P150913000000096223623704151  000000000000000000000000000000000000000000000000000000000000000000000000000000000000000000000000000000000000000000000                          0000000000                                                                  000049
1026052455000013100000090009902404869231844402                000000002300195272880000000000000000000000000902010813231844402 00000000230019527288150813000000000009923704151  000000000000000000000000000000000000000000000000000000000000000000000000000000000000000000000000000000000000000000000                          0000000000                                                                  000050
1026052455000013100000090009902404869231844137                000000002300195272960000000000000000000000000902010813231844137 00000000230019527296150813000000000500023704151  000000000000000000000000000000000000000000000000000000000000000000000000000000000000000000000000000000000000000000000                          0000000000                                                                  000051
1026052455000013100000090009902404869231844409                0000000023001952730P0000000000000000000000000902010813231844409 0000000023001952730P150813000000002059023704151  000000000000000000000000000000000000000000000000000000000000000000000000000000000000000000000000000000000000000000000                          0000000000                                                                  000052
1026052455000013100000090009902404869231844169                000000002300195273180000000000000000000000000902010813231844169 00000000230019527318150813000000000222023704151  000000000000000000000000000000000000000000000000000000000000000000000000000000000000000000000000000000000000000000000                          0000000000                                                                  000053
1026052455000013100000090009902404869231844022                000000002300195273260000000000000000000000000902010813231844022 00000000230019527326150813000000005000023704151  000000000000000000000000000000000000000000000000000000000000000000000000000000000000000000000000000000000000000000000                          0000000000                                                                  000054
10260524550000131000000900099024048692318444942               000000002300195273340000000000000000000000000902010813231844494200000000230019527334220813000000001316723704151  000000000000000000000000000000000000000000000000000000000000000000000000000000000000000000000000000000000000000000000                          0000000000                                                                  000055
10260524550000131000000900099024048692318444943               000000002300195273420000000000000000000000000902010813231844494300000000230019527342230913000000001316623704151  000000000000000000000000000000000000000000000000000000000000000000000000000000000000000000000000000000000000000000000                          0000000000                                                                  000056
1026052455000013100000090009902404869231843981                000000002300195273500000000000000000000000000902010813231843981 00000000230019527350150813000000010500023704151  000000000000000000000000000000000000000000000000000000000000000000000000000000000000000000000000000000000000000000000                          0000000000                                                                  000057
1026052455000013100000090009902404869231844410                000000002300195273690000000000000000000000000902010813231844410 00000000230019527369150813000000013656023704151  000000000000000000000000000000000000000000000000000000000000000000000000000000000000000000000000000000000000000000000                          0000000000                                                                  000058
1026052455000013100000090009902404869231844031                000000002300195273770000000000000000000000000902010813231844031 00000000230019527377150813000000005000023704151  000000000000000000000000000000000000000000000000000000000000000000000000000000000000000000000000000000000000000000000                          0000000000                                                                  000059
1026052455000013100000090009902404869231844090                000000002300195273850000000000000000000000000902010813231844090 00000000230019527385150813000000001000023704151  000000000000000000000000000000000000000000000000000000000000000000000000000000000000000000000000000000000000000000000                          0000000000                                                                  000060
1026052455000013100000090009902404869231844487                000000002300195273930000000000000000000000000902010813231844487 00000000230019527393120813000000001300023704151  000000000000000000000000000000000000000000000000000000000000000000000000000000000000000000000000000000000000000000000                          0000000000                                                                  000061
1026052455000013100000090009902404869231844095                000000002300195274070000000000000000000000000902010813231844095 00000000230019527407150813000000001500023704151  000000000000000000000000000000000000000000000000000000000000000000000000000000000000000000000000000000000000000000000                          0000000000                                                                  000062
1026052455000013100000090009902404869231844081                000000002300195274150000000000000000000000000902010813231844081 00000000230019527415150813000000000500023704151  000000000000000000000000000000000000000000000000000000000000000000000000000000000000000000000000000000000000000000000                          0000000000                                                                  000063
1026052455000013100000090009902404869231844025                000000002300195274230000000000000000000000000902010813231844025 00000000230019527423150813000000002000023704151  000000000000000000000000000000000000000000000000000000000000000000000000000000000000000000000000000000000000000000000                          0000000000                                                                  000064
1026052455000013100000090009902404869231844135                000000002300195274310000000000000000000000000902010813231844135 00000000230019527431150813000000007500023704151  000000000000000000000000000000000000000000000000000000000000000000000000000000000000000000000000000000000000000000000                          0000000000                                                                  000065
1026052455000013100000090009902404869231844114                0000000023001952744P0000000000000000000000000902010813231844114 0000000023001952744P150813000000001500023704151  000000000000000000000000000000000000000000000000000000000000000000000000000000000000000000000000000000000000000000000                          0000000000                                                                  000066
1026052455000013100000090009902404869231844158                000000002300195274580000000000000000000000000902010813231844158 00000000230019527458150813000000001000023704151  000000000000000000000000000000000000000000000000000000000000000000000000000000000000000000000000000000000000000000000                          0000000000                                                                  000067
1026052455000013100000090009902404869231844097                000000002300195274660000000000000000000000000902010813231844097 00000000230019527466150813000000001500023704151  000000000000000000000000000000000000000000000000000000000000000000000000000000000000000000000000000000000000000000000                          0000000000                                                                  000068
1026052455000013100000090009902404869231844159                000000002300195274740000000000000000000000000902010813231844159 00000000230019527474150813000000001000023704151  000000000000000000000000000000000000000000000000000000000000000000000000000000000000000000000000000000000000000000000                          0000000000                                                                  000069
1026052455000013100000090009902404869231843987                000000002300195274820000000000000000000000000902010813231843987 00000000230019527482150813000000000500023704151  000000000000000000000000000000000000000000000000000000000000000000000000000000000000000000000000000000000000000000000                          0000000000                                                                  000070
1026052455000013100000090009902404869231844083                000000002300195274900000000000000000000000000902010813231844083 00000000230019527490150813000000000500023704151  000000000000000000000000000000000000000000000000000000000000000000000000000000000000000000000000000000000000000000000                          0000000000                                                                  000071
1026052455000013100000090009902404869231843974                000000002300195275040000000000000000000000000902010813231843974 00000000230019527504150813000000006500023704151  000000000000000000000000000000000000000000000000000000000000000000000000000000000000000000000000000000000000000000000                          0000000000                                                                  000072
1026052455000013100000090009902404869231844148                000000002300195275120000000000000000000000000902010813231844148 00000000230019527512150813000000000500023704151  000000000000000000000000000000000000000000000000000000000000000000000000000000000000000000000000000000000000000000000                          0000000000                                                                  000073
1026052455000013100000090009902404869231843993                000000002300195275200000000000000000000000000902010813231843993 00000000230019527520150813000000000500023704151  000000000000000000000000000000000000000000000000000000000000000000000000000000000000000000000000000000000000000000000                          0000000000                                                                  000074
1026052455000013100000090009902404869231844172                000000002300195275390000000000000000000000000902010813231844172 00000000230019527539150813000000002500023704151  000000000000000000000000000000000000000000000000000000000000000000000000000000000000000000000000000000000000000000000                          0000000000                                                                  000075
1026052455000013100000090009902404869231844411                000000002300195275470000000000000000000000000902010813231844411 00000000230019527547150813000000002102123704151  000000000000000000000000000000000000000000000000000000000000000000000000000000000000000000000000000000000000000000000                          0000000000                                                                  000076
1026052455000013100000090009902404869231844414                000000002300195275550000000000000000000000000902010813231844414 00000000230019527555150813000000066362023704151  000000000000000000000000000000000000000000000000000000000000000000000000000000000000000000000000000000000000000000000                          0000000000                                                                  000077
10260524550000131000000900099024048692318444911               000000002300195275630000000000000000000000000902010813231844491100000000230019527563150813000000000650023704151  000000000000000000000000000000000000000000000000000000000000000000000000000000000000000000000000000000000000000000000                          0000000000                                                                  000078
10260524550000131000000900099024048692318444912               000000002300195275710000000000000000000000000902010813231844491200000000230019527571160913000000000650023704151  000000000000000000000000000000000000000000000000000000000000000000000000000000000000000000000000000000000000000000000                          0000000000                                                                  000079
1026052455000013100000090009902404869231844080                0000000023001952758P0000000000000000000000000902010813231844080 0000000023001952758P150813000000000500023704151  000000000000000000000000000000000000000000000000000000000000000000000000000000000000000000000000000000000000000000000                          0000000000                                                                  000080
1026052455000013100000090009902404869231844029                000000002300195275980000000000000000000000000902010813231844029 00000000230019527598150813000000000500023704151  000000000000000000000000000000000000000000000000000000000000000000000000000000000000000000000000000000000000000000000                          0000000000                                                                  000081
1026052455000013100000090009902404869231844052                000000002300195276010000000000000000000000000902010813231844052 00000000230019527601150813000000001000023704151  000000000000000000000000000000000000000000000000000000000000000000000000000000000000000000000000000000000000000000000                          0000000000                                                                  000082
1026052455000013100000090009902404869231844144                0000000023001952761P0000000000000000000000000902010813231844144 0000000023001952761P150813000000002000023704151  000000000000000000000000000000000000000000000000000000000000000000000000000000000000000000000000000000000000000000000                          0000000000                                                                  000083
1026052455000013100000090009902404869231844105                000000002300195276280000000000000000000000000902010813231844105 00000000230019527628150813000000009000023704151  000000000000000000000000000000000000000000000000000000000000000000000000000000000000000000000000000000000000000000000                          0000000000                                                                  000084
1026052455000013100000090009902404869231844413                000000002300195276360000000000000000000000000902010813231844413 00000000230019527636150813000000015194323704151  000000000000000000000000000000000000000000000000000000000000000000000000000000000000000000000000000000000000000000000                          0000000000                                                                  000085
1026052455000013100000090009902404869231844113                000000002300195276440000000000000000000000000902010813231844113 00000000230019527644150813000000001100023704151  000000000000000000000000000000000000000000000000000000000000000000000000000000000000000000000000000000000000000000000                          0000000000                                                                  000086
1026052455000013100000090009902404869231844067                000000002300195276520000000000000000000000000902010813231844067 00000000230019527652150813000000001000023704151  000000000000000000000000000000000000000000000000000000000000000000000000000000000000000000000000000000000000000000000                          0000000000                                                                  000087
1026052455000013100000090009902404869231843983                000000002300195276600000000000000000000000000902010813231843983 00000000230019527660150813000000002000023704151  000000000000000000000000000000000000000000000000000000000000000000000000000000000000000000000000000000000000000000000                          0000000000                                                                  000088
1026052455000013100000090009902404869231844160                000000002300195276790000000000000000000000000902010813231844160 00000000230019527679150813000000001500023704151  000000000000000000000000000000000000000000000000000000000000000000000000000000000000000000000000000000000000000000000                          0000000000                                                                  000089
1026052455000013100000090009902404869231844161                000000002300195276870000000000000000000000000902010813231844161 00000000230019527687150813000000006500023704151  000000000000000000000000000000000000000000000000000000000000000000000000000000000000000000000000000000000000000000000                          0000000000                                                                  000090
1026052455000013100000090009902404869231844170                000000002300195276950000000000000000000000000902010813231844170 00000000230019527695150813000000003000023704151  000000000000000000000000000000000000000000000000000000000000000000000000000000000000000000000000000000000000000000000                          0000000000                                                                  000091
1026052455000013100000090009902404869231844177                000000002300195277090000000000000000000000000902010813231844177 00000000230019527709150813000000002500023704151  000000000000000000000000000000000000000000000000000000000000000000000000000000000000000000000000000000000000000000000                          0000000000                                                                  000092
1026052455000013100000090009902404869231844415                000000002300195277170000000000000000000000000902010813231844415 00000000230019527717150813000000003562623704151  000000000000000000000000000000000000000000000000000000000000000000000000000000000000000000000000000000000000000000000                          0000000000                                                                  000093
1026052455000013100000090009902404869231844026                000000002300195277250000000000000000000000000902010813231844026 00000000230019527725150813000000000500023704151  000000000000000000000000000000000000000000000000000000000000000000000000000000000000000000000000000000000000000000000                          0000000000                                                                  000094
10260524550000131000000900099024048691208393831               000000002300195277330000000000000000000000000902010813120839383100000000230019527733120813000000001053323704151  000000000000000000000000000000000000000000000000000000000000000000000000000000000000000000000000000000000000000000000                          0000000000                                                                  000095
10260524550000131000000900099024048691208393832               000000002300195277410000000000000000000000000902010813120839383200000000230019527741090913000000001053323704151  000000000000000000000000000000000000000000000000000000000000000000000000000000000000000000000000000000000000000000000                          0000000000                                                                  000096
10260524550000131000000900099024048691208393833               0000000023001952775P000000000000000000000000090201081312083938330000000023001952775P091013000000001053423704151  000000000000000000000000000000000000000000000000000000000000000000000000000000000000000000000000000000000000000000000                          0000000000                                                                  000097
1026052455000013100000090009902404869231844054                000000002300195277680000000000000000000000000902010813231844054 00000000230019527768150813000000002500023704151  000000000000000000000000000000000000000000000000000000000000000000000000000000000000000000000000000000000000000000000                          0000000000                                                                  000098
1026052455000013100000090009902404869231844030                000000002300195277760000000000000000000000000902010813231844030 00000000230019527776150813000000001500023704151  000000000000000000000000000000000000000000000000000000000000000000000000000000000000000000000000000000000000000000000                          0000000000                                                                  000099
1026052455000013100000090009902404869231844417                000000002300195277840000000000000000000000000902010813231844417 00000000230019527784150813000000001312023704151  000000000000000000000000000000000000000000000000000000000000000000000000000000000000000000000000000000000000000000000                          0000000000                                                                  000100
1026052455000013100000090009902404869231844059                000000002300195277920000000000000000000000000902010813231844059 00000000230019527792150813000000001000023704151  000000000000000000000000000000000000000000000000000000000000000000000000000000000000000000000000000000000000000000000                          0000000000                                                                  000101
1026052455000013100000090009902404869231844418                000000002300195278060000000000000000000000000902010813231844418 00000000230019527806150813000000003340623704424  000000000000000000000000000000000000000000000000000000000000000000000000000000000000000000000000000000000000000000000                          0000000000                                                                  000102
1026052455000013100000090009902404869231844419                000000002300195278140000000000000000000000000902010813231844419 00000000230019527814150813000000004009123704151  000000000000000000000000000000000000000000000000000000000000000000000000000000000000000000000000000000000000000000000                          0000000000                                                                  000103
1026052455000013100000090009902404869231844420                000000002300195278220000000000000000000000000902010813231844420 00000000230019527822150813000000103044323704151  000000000000000000000000000000000000000000000000000000000000000000000000000000000000000000000000000000000000000000000                          0000000000                                                                  000104
1026052455000013100000090009902404869231843994                000000002300195278300000000000000000000000000902010813231843994 00000000230019527830150813000000000500023704151  000000000000000000000000000000000000000000000000000000000000000000000000000000000000000000000000000000000000000000000                          0000000000                                                                  000105
1026052455000013100000090009902404869231844048                000000002300195278490000000000000000000000000902010813231844048 00000000230019527849150813000000010500023704151  000000000000000000000000000000000000000000000000000000000000000000000000000000000000000000000000000000000000000000000                          0000000000                                                                  000106
1026052455000013100000090009902404869231844050                000000002300195278570000000000000000000000000902010813231844050 00000000230019527857150813000000000500023704151  000000000000000000000000000000000000000000000000000000000000000000000000000000000000000000000000000000000000000000000                          0000000000                                                                  000107
1026052455000013100000090009902404869231844421                000000002300195278650000000000000000000000000902010813231844421 00000000230019527865150813000000002858723704151  000000000000000000000000000000000000000000000000000000000000000000000000000000000000000000000000000000000000000000000                          0000000000                                                                  000108
1026052455000013100000090009902404869231844422                000000002300195278730000000000000000000000000902010813231844422 00000000230019527873150813000000007807323704151  000000000000000000000000000000000000000000000000000000000000000000000000000000000000000000000000000000000000000000000                          0000000000                                                                  000109
1026052455000013100000090009902404869231844019                000000002300195278810000000000000000000000000902010813231844019 00000000230019527881150813000000000500023704151  000000000000000000000000000000000000000000000000000000000000000000000000000000000000000000000000000000000000000000000                          0000000000                                                                  000110
1026052455000013100000090009902404869231844403                0000000023001952789P0000000000000000000000000902010813231844403 0000000023001952789P150813000000000009923704151  000000000000000000000000000000000000000000000000000000000000000000000000000000000000000000000000000000000000000000000                          0000000000                                                                  000111
1026052455000013100000090009902404869231844423                000000002300195279030000000000000000000000000902010813231844423 00000000230019527903150813000000032940023704151  000000000000000000000000000000000000000000000000000000000000000000000000000000000000000000000000000000000000000000000                          0000000000                                                                  000112
1026052455000013100000090009902404869231844069                000000002300195279110000000000000000000000000902010813231844069 00000000230019527911150813000000003500023704151  000000000000000000000000000000000000000000000000000000000000000000000000000000000000000000000000000000000000000000000                          0000000000                                                                  000113
1026052455000013100000090009902404869231844424                0000000023001952792P0000000000000000000000000902010813231844424 0000000023001952792P150813000000006459023704151  000000000000000000000000000000000000000000000000000000000000000000000000000000000000000000000000000000000000000000000                          0000000000                                                                  000114
1026052455000013100000090009902404869231844426                000000002300195279380000000000000000000000000902010813231844426 00000000230019527938150813000000013752023704151  000000000000000000000000000000000000000000000000000000000000000000000000000000000000000000000000000000000000000000000                          0000000000                                                                  000115
1026052455000013100000090009902404869231844010                000000002300195279460000000000000000000000000902010813231844010 00000000230019527946150813000000005500023704151  000000000000000000000000000000000000000000000000000000000000000000000000000000000000000000000000000000000000000000000                          0000000000                                                                  000116
1026052455000013100000090009902404869231844101                000000002300195279540000000000000000000000000902010813231844101 00000000230019527954150813000000001000023704151  000000000000000000000000000000000000000000000000000000000000000000000000000000000000000000000000000000000000000000000                          0000000000                                                                  000117
10260524550000131000000900099024048692318444991               000000002300195279620000000000000000000000000902010813231844499100000000230019527962120813000000000650023704151  000000000000000000000000000000000000000000000000000000000000000000000000000000000000000000000000000000000000000000000                          0000000000                                                                  000118
10260524550000131000000900099024048692318444992               000000002300195279700000000000000000000000000902010813231844499200000000230019527970120913000000000650023704151  000000000000000000000000000000000000000000000000000000000000000000000000000000000000000000000000000000000000000000000                          0000000000                                                                  000119
1026052455000013100000090009902404869231844049                000000002300195279890000000000000000000000000902010813231844049 00000000230019527989150813000000001500023704151  000000000000000000000000000000000000000000000000000000000000000000000000000000000000000000000000000000000000000000000                          0000000000                                                                  000120
1026052455000013100000090009902404869231843975                000000002300195279970000000000000000000000000902010813231843975 00000000230019527997150813000000001000023704151  000000000000000000000000000000000000000000000000000000000000000000000000000000000000000000000000000000000000000000000                          0000000000                                                                  000121
1026052455000013100000090009902404869231844140                000000002300195280040000000000000000000000000902010813231844140 00000000230019528004150813000000001100023704151  000000000000000000000000000000000000000000000000000000000000000000000000000000000000000000000000000000000000000000000                          0000000000                                                                  000122
1026052455000013100000090009902404869231844082                000000002300195280120000000000000000000000000902010813231844082 00000000230019528012150813000000001000023704151  000000000000000000000000000000000000000000000000000000000000000000000000000000000000000000000000000000000000000000000                          0000000000                                                                  000123
1026052455000013100000090009902404869231844061                000000002300195280200000000000000000000000000902010813231844061 00000000230019528020150813000000000500023704151  000000000000000000000000000000000000000000000000000000000000000000000000000000000000000000000000000000000000000000000                          0000000000                                                                  000124
1026052455000013100000090009902404869231844425                000000002300195280390000000000000000000000000902010813231844425 00000000230019528039150813000000011855023704151  000000000000000000000000000000000000000000000000000000000000000000000000000000000000000000000000000000000000000000000                          0000000000                                                                  000125
1026052455000013100000090009902404869231844051                000000002300195280470000000000000000000000000902010813231844051 00000000230019528047150813000000004500023704151  000000000000000000000000000000000000000000000000000000000000000000000000000000000000000000000000000000000000000000000                          0000000000                                                                  000126
1026052455000013100000090009902404869231844178                000000002300195280550000000000000000000000000902010813231844178 00000000230019528055150813000000000500023704151  000000000000000000000000000000000000000000000000000000000000000000000000000000000000000000000000000000000000000000000                          0000000000                                                                  000127
1026052455000013100000090009902404869231844145                000000002300195280630000000000000000000000000902010813231844145 00000000230019528063150813000000039000023704151  000000000000000000000000000000000000000000000000000000000000000000000000000000000000000000000000000000000000000000000                          0000000000                                                                  000128
1026052455000013100000090009902404869231844035                000000002300195280710000000000000000000000000902010813231844035 00000000230019528071150813000000006000023704151  000000000000000000000000000000000000000000000000000000000000000000000000000000000000000000000000000000000000000000000                          0000000000                                                                  000129
1026052455000013100000090009902404869231844128                0000000023001952808P0000000000000000000000000902010813231844128 0000000023001952808P150813000000001500023704151  000000000000000000000000000000000000000000000000000000000000000000000000000000000000000000000000000000000000000000000                          0000000000                                                                  000130
1026052455000013100000090009902404869231844055                000000002300195280980000000000000000000000000902010813231844055 00000000230019528098150813000000006500023704151  000000000000000000000000000000000000000000000000000000000000000000000000000000000000000000000000000000000000000000000                          0000000000                                                                  000131
1026052455000013100000090009902404869231843988                000000002300195281010000000000000000000000000902010813231843988 00000000230019528101150813000000004000023704151  000000000000000000000000000000000000000000000000000000000000000000000000000000000000000000000000000000000000000000000                          0000000000                                                                  000132
1026052455000013100000090009902404869231844427                0000000023001952811P0000000000000000000000000902010813231844427 0000000023001952811P150813000000028983023704151  000000000000000000000000000000000000000000000000000000000000000000000000000000000000000000000000000000000000000000000                          0000000000                                                                  000133
10260524550000131000000900099024048692318444981               000000002300195281280000000000000000000000000902010813231844498100000000230019528128190813000000000650023704151  000000000000000000000000000000000000000000000000000000000000000000000000000000000000000000000000000000000000000000000                          0000000000                                                                  000134
10260524550000131000000900099024048692318444982               000000002300195281360000000000000000000000000902010813231844498200000000230019528136190913000000000650023704151  000000000000000000000000000000000000000000000000000000000000000000000000000000000000000000000000000000000000000000000                          0000000000                                                                  000135
1026052455000013100000090009902404869231844104                000000002300195281440000000000000000000000000902010813231844104 00000000230019528144150813000000001000023704151  000000000000000000000000000000000000000000000000000000000000000000000000000000000000000000000000000000000000000000000                          0000000000                                                                  000136
1026052455000013100000090009902404869231844132                000000002300195281520000000000000000000000000902010813231844132 00000000230019528152150813000000002000023704151  000000000000000000000000000000000000000000000000000000000000000000000000000000000000000000000000000000000000000000000                          0000000000                                                                  000137
1026052455000013100000090009902404869231843969                000000002300195281600000000000000000000000000902010813231843969 00000000230019528160150813000000001000023704151  000000000000000000000000000000000000000000000000000000000000000000000000000000000000000000000000000000000000000000000                          0000000000                                                                  000138
1026052455000013100000090009902404869231844428                000000002300195281790000000000000000000000000902010813231844428 00000000230019528179150813000000017925023704151  000000000000000000000000000000000000000000000000000000000000000000000000000000000000000000000000000000000000000000000                          0000000000                                                                  000139
1026052455000013100000090009902404869231843991                000000002300195281870000000000000000000000000902010813231843991 00000000230019528187150813000000000500023704151  000000000000000000000000000000000000000000000000000000000000000000000000000000000000000000000000000000000000000000000                          0000000000                                                                  000140
1026052455000013100000090009902404869231844062                000000002300195281950000000000000000000000000902010813231844062 00000000230019528195150813000000001500023704151  000000000000000000000000000000000000000000000000000000000000000000000000000000000000000000000000000000000000000000000                          0000000000                                                                  000141
1026052455000013100000090009902404869231844065                000000002300195282090000000000000000000000000902010813231844065 00000000230019528209150813000000001500023704151  000000000000000000000000000000000000000000000000000000000000000000000000000000000000000000000000000000000000000000000                          0000000000                                                                  000142
1026052455000013100000090009902404869231844086                000000002300195282170000000000000000000000000902010813231844086 00000000230019528217150813000000000600023704151  000000000000000000000000000000000000000000000000000000000000000000000000000000000000000000000000000000000000000000000                          0000000000                                                                  000143
1026052455000013100000090009902404869231844143                000000002300195282250000000000000000000000000902010813231844143 00000000230019528225150813000000002500023704151  000000000000000000000000000000000000000000000000000000000000000000000000000000000000000000000000000000000000000000000                          0000000000                                                                  000144
1026052455000013100000090009902404869231844174                000000002300195282330000000000000000000000000902010813231844174 00000000230019528233150813000000005000023704151  000000000000000000000000000000000000000000000000000000000000000000000000000000000000000000000000000000000000000000000                          0000000000                                                                  000145
1026052455000013100000090009902404869231844108                000000002300195282410000000000000000000000000902010813231844108 00000000230019528241150813000000005000023704151  000000000000000000000000000000000000000000000000000000000000000000000000000000000000000000000000000000000000000000000                          0000000000                                                                  000146
1026052455000013100000090009902404869231844102                0000000023001952825P0000000000000000000000000902010813231844102 0000000023001952825P150813000000004000023704151  000000000000000000000000000000000000000000000000000000000000000000000000000000000000000000000000000000000000000000000                          0000000000                                                                  000147
1026052455000013100000090009902404869231844096                000000002300195282680000000000000000000000000902010813231844096 00000000230019528268150813000000001500023704151  000000000000000000000000000000000000000000000000000000000000000000000000000000000000000000000000000000000000000000000                          0000000000                                                                  000148
1026052455000013100000090009902404869231844429                000000002300195282760000000000000000000000000902010813231844429 00000000230019528276150813000000036701023704151  000000000000000000000000000000000000000000000000000000000000000000000000000000000000000000000000000000000000000000000                          0000000000                                                                  000149
1026052455000013100000090009902404869231844513                000000002300195282840000000000000000000000000902010813231844513 00000000230019528284150813000000000500023704151  000000000000000000000000000000000000000000000000000000000000000000000000000000000000000000000000000000000000000000000                          0000000000                                                                  000150
1026052455000013100000090009902404869231844085                000000002300195282920000000000000000000000000902010813231844085 00000000230019528292150813000000004000023704151  000000000000000000000000000000000000000000000000000000000000000000000000000000000000000000000000000000000000000000000                          0000000000                                                                  000151
1026052455000013100000090009902404869231844155                000000002300195283060000000000000000000000000902010813231844155 00000000230019528306150813000000006500023704151  000000000000000000000000000000000000000000000000000000000000000000000000000000000000000000000000000000000000000000000                          0000000000                                                                  000152
1026052455000013100000090009902404869231843995                000000002300195283140000000000000000000000000902010813231843995 00000000230019528314150813000000002500023704151  000000000000000000000000000000000000000000000000000000000000000000000000000000000000000000000000000000000000000000000                          0000000000                                                                  000153
1026052455000013100000090009902404869231844014                000000002300195283220000000000000000000000000902010813231844014 00000000230019528322150813000000002000023704151  000000000000000000000000000000000000000000000000000000000000000000000000000000000000000000000000000000000000000000000                          0000000000                                                                  000154
1026052455000013100000090009902404869231844430                000000002300195283300000000000000000000000000902010813231844430 00000000230019528330150813000000002508023704151  000000000000000000000000000000000000000000000000000000000000000000000000000000000000000000000000000000000000000000000                          0000000000                                                                  000155
1026052455000013100000090009902404869231844038                000000002300195283490000000000000000000000000902010813231844038 00000000230019528349150813000000004500023704151  000000000000000000000000000000000000000000000000000000000000000000000000000000000000000000000000000000000000000000000                          0000000000                                                                  000156
1026052455000013100000090009902404869231844100                000000002300195283570000000000000000000000000902010813231844100 00000000230019528357150813000000002000023704151  000000000000000000000000000000000000000000000000000000000000000000000000000000000000000000000000000000000000000000000                          0000000000                                                                  000157
1026052455000013100000090009902404869231844431                000000002300195283650000000000000000000000000902010813231844431 00000000230019528365150813000000002330023704151  000000000000000000000000000000000000000000000000000000000000000000000000000000000000000000000000000000000000000000000                          0000000000                                                                  000158
1026052455000013100000090009902404869231844432                000000002300195283730000000000000000000000000902010813231844432 00000000230019528373150813000000002518923704151  000000000000000000000000000000000000000000000000000000000000000000000000000000000000000000000000000000000000000000000                          0000000000                                                                  000159
1026052455000013100000090009902404869231844181                000000002300195283810000000000000000000000000902010813231844181 00000000230019528381150813000000000222023704151  000000000000000000000000000000000000000000000000000000000000000000000000000000000000000000000000000000000000000000000                          0000000000                                                                  000160
1026052455000013100000090009902404869231844091                0000000023001952839P0000000000000000000000000902010813231844091 0000000023001952839P150813000000000500023704151  000000000000000000000000000000000000000000000000000000000000000000000000000000000000000000000000000000000000000000000                          0000000000                                                                  000161
1026052455000013100000090009902404869231844064                000000002300195284030000000000000000000000000902010813231844064 00000000230019528403150813000000000500023704151  000000000000000000000000000000000000000000000000000000000000000000000000000000000000000000000000000000000000000000000                          0000000000                                                                  000162
1026052455000013100000090009902404869231844008                000000002300195284110000000000000000000000000902010813231844008 00000000230019528411150813000000000500023704151  000000000000000000000000000000000000000000000000000000000000000000000000000000000000000000000000000000000000000000000                          0000000000                                                                  000163
1026052455000013100000090009902404869231844153                0000000023001952842P0000000000000000000000000902010813231844153 0000000023001952842P150813000000001000023704151  000000000000000000000000000000000000000000000000000000000000000000000000000000000000000000000000000000000000000000000                          0000000000                                                                  000164
1026052455000013100000090009902404869231843996                000000002300195284380000000000000000000000000902010813231843996 00000000230019528438150813000000005500023704151  000000000000000000000000000000000000000000000000000000000000000000000000000000000000000000000000000000000000000000000                          0000000000                                                                  000165
1026052455000013100000090009902404869231844088                000000002300195284460000000000000000000000000902010813231844088 00000000230019528446150813000000004000023704151  000000000000000000000000000000000000000000000000000000000000000000000000000000000000000000000000000000000000000000000                          0000000000                                                                  000166
1026052455000013100000090009902404869231844433                000000002300195284540000000000000000000000000902010813231844433 00000000230019528454150813000000001310023704151  000000000000000000000000000000000000000000000000000000000000000000000000000000000000000000000000000000000000000000000                          0000000000                                                                  000167
10260524550000131000000900099024048692318444961               000000002300195284620000000000000000000000000902010813231844496100000000230019528462120813000000000650023704151  000000000000000000000000000000000000000000000000000000000000000000000000000000000000000000000000000000000000000000000                          0000000000                                                                  000168
10260524550000131000000900099024048692318444962               000000002300195284700000000000000000000000000902010813231844496200000000230019528470120913000000000650023704151  000000000000000000000000000000000000000000000000000000000000000000000000000000000000000000000000000000000000000000000                          0000000000                                                                  000169
1026052455000013100000090009902404869231844434                000000002300195284890000000000000000000000000902010813231844434 00000000230019528489150813000000012960023704151  000000000000000000000000000000000000000000000000000000000000000000000000000000000000000000000000000000000000000000000                          0000000000                                                                  000170
1026052455000013100000090009902404869231844066                000000002300195284970000000000000000000000000902010813231844066 00000000230019528497150813000000001000023704151  000000000000000000000000000000000000000000000000000000000000000000000000000000000000000000000000000000000000000000000                          0000000000                                                                  000171
1026052455000013100000090009902404869231844073                000000002300195285000000000000000000000000000902010813231844073 00000000230019528500150813000000002000023704151  000000000000000000000000000000000000000000000000000000000000000000000000000000000000000000000000000000000000000000000                          0000000000                                                                  000172
1026052455000013100000090009902404869231844115                000000002300195285190000000000000000000000000902010813231844115 00000000230019528519150813000000003600023704151  000000000000000000000000000000000000000000000000000000000000000000000000000000000000000000000000000000000000000000000                          0000000000                                                                  000173
1026052455000013100000090009902404869231844156                000000002300195285270000000000000000000000000902010813231844156 00000000230019528527150813000000016000023704151  000000000000000000000000000000000000000000000000000000000000000000000000000000000000000000000000000000000000000000000                          0000000000                                                                  000174
1026052455000013100000090009902404869231844176                000000002300195285350000000000000000000000000902010813231844176 00000000230019528535150813000000004000023704151  000000000000000000000000000000000000000000000000000000000000000000000000000000000000000000000000000000000000000000000                          0000000000                                                                  000175
1026052455000013100000090009902404869231844168                000000002300195285430000000000000000000000000902010813231844168 00000000230019528543150813000000002100023704151  000000000000000000000000000000000000000000000000000000000000000000000000000000000000000000000000000000000000000000000                          0000000000                                                                  000176
1026052455000013100000090009902404869231844072                000000002300195285510000000000000000000000000902010813231844072 00000000230019528551150813000000003500023704151  000000000000000000000000000000000000000000000000000000000000000000000000000000000000000000000000000000000000000000000                          0000000000                                                                  000177
1026052455000013100000090009902404869231844179                0000000023001952856P0000000000000000000000000902010813231844179 0000000023001952856P150813000000001000023704151  000000000000000000000000000000000000000000000000000000000000000000000000000000000000000000000000000000000000000000000                          0000000000                                                                  000178
1026052455000013100000090009902404869231843999                000000002300195285780000000000000000000000000902010813231843999 00000000230019528578150813000000001500023704151  000000000000000000000000000000000000000000000000000000000000000000000000000000000000000000000000000000000000000000000                          0000000000                                                                  000179
1026052455000013100000090009902404869231843977                000000002300195285860000000000000000000000000902010813231843977 00000000230019528586150813000000001500023704151  000000000000000000000000000000000000000000000000000000000000000000000000000000000000000000000000000000000000000000000                          0000000000                                                                  000180
1026052455000013100000090009902404869231844167                000000002300195285940000000000000000000000000902010813231844167 00000000230019528594150813000000000122023704151  000000000000000000000000000000000000000000000000000000000000000000000000000000000000000000000000000000000000000000000                          0000000000                                                                  000181
1026052455000013100000090009902404869231843979                000000002300195286080000000000000000000000000902010813231843979 00000000230019528608150813000000001500023704151  000000000000000000000000000000000000000000000000000000000000000000000000000000000000000000000000000000000000000000000                          0000000000                                                                  000182
1026052455000013100000090009902404869231844437                000000002300195286160000000000000000000000000902010813231844437 00000000230019528616150813000000004984323704151  000000000000000000000000000000000000000000000000000000000000000000000000000000000000000000000000000000000000000000000                          0000000000                                                                  000183
1026052455000013100000090009902404869231843985                000000002300195286240000000000000000000000000902010813231843985 00000000230019528624150813000000003000023704151  000000000000000000000000000000000000000000000000000000000000000000000000000000000000000000000000000000000000000000000                          0000000000                                                                  000184
10260524550000131000000900099024048692318444931               000000002300195286320000000000000000000000000902010813231844493100000000230019528632290813000000000650023704151  000000000000000000000000000000000000000000000000000000000000000000000000000000000000000000000000000000000000000000000                          0000000000                                                                  000185
10260524550000131000000900099024048692318444932               000000002300195286400000000000000000000000000902010813231844493200000000230019528640300913000000000650023704151  000000000000000000000000000000000000000000000000000000000000000000000000000000000000000000000000000000000000000000000                          0000000000                                                                  000186
1026052455000013100000090009902404869231844093                000000002300195286590000000000000000000000000902010813231844093 00000000230019528659150813000000005000023704151  000000000000000000000000000000000000000000000000000000000000000000000000000000000000000000000000000000000000000000000                          0000000000                                                                  000187
1026052455000013100000090009902404869231844438                000000002300195286670000000000000000000000000902010813231844438 00000000230019528667150813000000001275223704151  000000000000000000000000000000000000000000000000000000000000000000000000000000000000000000000000000000000000000000000                          0000000000                                                                  000188
1026052455000013100000090009902404869231844171                000000002300195286750000000000000000000000000902010813231844171 00000000230019528675150813000000003500023704151  000000000000000000000000000000000000000000000000000000000000000000000000000000000000000000000000000000000000000000000                          0000000000                                                                  000189
1026052455000013100000090009902404869231844078                000000002300195286830000000000000000000000000902010813231844078 00000000230019528683150813000000001000023704151  000000000000000000000000000000000000000000000000000000000000000000000000000000000000000000000000000000000000000000000                          0000000000                                                                  000190
1026052455000013100000090009902404869231844087                000000002300195286910000000000000000000000000902010813231844087 00000000230019528691150813000000001000023704151  000000000000000000000000000000000000000000000000000000000000000000000000000000000000000000000000000000000000000000000                          0000000000                                                                  000191
1026052455000013100000090009902404869231844517                000000002300195287050000000000000000000000000902010813231844517 00000000230019528705150813000000015400023704151  000000000000000000000000000000000000000000000000000000000000000000000000000000000000000000000000000000000000000000000                          0000000000                                                                  000192
1026052455000013100000090009902404869231844034                000000002300195287130000000000000000000000000902010813231844034 00000000230019528713150813000000045500023704151  000000000000000000000000000000000000000000000000000000000000000000000000000000000000000000000000000000000000000000000                          0000000000                                                                  000193
1026052455000013100000090009902404869231844117                000000002300195287210000000000000000000000000902010813231844117 00000000230019528721150813000000002000023704151  000000000000000000000000000000000000000000000000000000000000000000000000000000000000000000000000000000000000000000000                          0000000000                                                                  000194
1026052455000013100000090009902404869231844043                0000000023001952873P0000000000000000000000000902010813231844043 0000000023001952873P150813000000001500023704151  000000000000000000000000000000000000000000000000000000000000000000000000000000000000000000000000000000000000000000000                          0000000000                                                                  000195
1026052455000013100000090009902404869231843982                000000002300195287480000000000000000000000000902010813231843982 00000000230019528748150813000000003500023704151  000000000000000000000000000000000000000000000000000000000000000000000000000000000000000000000000000000000000000000000                          0000000000                                                                  000196
1026052455000013100000090009902404869231844166                000000002300195287560000000000000000000000000902010813231844166 00000000230019528756150813000000001500023704151  000000000000000000000000000000000000000000000000000000000000000000000000000000000000000000000000000000000000000000000                          0000000000                                                                  000197
1026052455000013100000090009902404869231844126                000000002300195287640000000000000000000000000902010813231844126 00000000230019528764150813000000002000023704151  000000000000000000000000000000000000000000000000000000000000000000000000000000000000000000000000000000000000000000000                          0000000000                                                                  000198
1026052455000013100000090009902404869231843967                000000002300195287720000000000000000000000000902010813231843967 00000000230019528772150813000000013100023704151  000000000000000000000000000000000000000000000000000000000000000000000000000000000000000000000000000000000000000000000                          0000000000                                                                  000199
1026052455000013100000090009902404869231844149                000000002300195287800000000000000000000000000902010813231844149 00000000230019528780150813000000001500023704151  000000000000000000000000000000000000000000000000000000000000000000000000000000000000000000000000000000000000000000000                          0000000000                                                                  000200
1026052455000013100000090009902404869231844157                000000002300195287990000000000000000000000000902010813231844157 00000000230019528799150813000000000500023704151  000000000000000000000000000000000000000000000000000000000000000000000000000000000000000000000000000000000000000000000                          0000000000                                                                  000201
1026052455000013100000090009902404869231844439                000000002300195288020000000000000000000000000902010813231844439 00000000230019528802150813000000003616723704151  000000000000000000000000000000000000000000000000000000000000000000000000000000000000000000000000000000000000000000000                          0000000000                                                                  000202
1026052455000013100000090009902404869231844180                000000002300195288100000000000000000000000000902010813231844180 00000000230019528810150813000000001000023704151  000000000000000000000000000000000000000000000000000000000000000000000000000000000000000000000000000000000000000000000                          0000000000                                                                  000203
1026052455000013100000090009902404869231844071                000000002300195288290000000000000000000000000902010813231844071 00000000230019528829150813000000001000023704151  000000000000000000000000000000000000000000000000000000000000000000000000000000000000000000000000000000000000000000000                          0000000000                                                                  000204
1026052455000013100000090009902404869231844092                000000002300195288370000000000000000000000000902010813231844092 00000000230019528837150813000000004500023704151  000000000000000000000000000000000000000000000000000000000000000000000000000000000000000000000000000000000000000000000                          0000000000                                                                  000205
1026052455000013100000090009902404869231844044                000000002300195288450000000000000000000000000902010813231844044 00000000230019528845150813000000007000023704151  000000000000000000000000000000000000000000000000000000000000000000000000000000000000000000000000000000000000000000000                          0000000000                                                                  000206
1026052455000013100000090009902404869231844440                000000002300195288530000000000000000000000000902010813231844440 00000000230019528853150813000000010005023704151  000000000000000000000000000000000000000000000000000000000000000000000000000000000000000000000000000000000000000000000                          0000000000                                                                  000207
1026052455000013100000090009902404869231844138                000000002300195288610000000000000000000000000902010813231844138 00000000230019528861150813000000001500023704151  000000000000000000000000000000000000000000000000000000000000000000000000000000000000000000000000000000000000000000000                          0000000000                                                                  000208
1026052455000013100000090009902404869231844046                0000000023001952887P0000000000000000000000000902010813231844046 0000000023001952887P150813000000004000023704151  000000000000000000000000000000000000000000000000000000000000000000000000000000000000000000000000000000000000000000000                          0000000000                                                                  000209
1026052455000013100000090009902404869231844147                000000002300195288880000000000000000000000000902010813231844147 00000000230019528888150813000000001000023704151  000000000000000000000000000000000000000000000000000000000000000000000000000000000000000000000000000000000000000000000                          0000000000                                                                  000210
1026052455000013100000090009902404869231844173                000000002300195288960000000000000000000000000902010813231844173 00000000230019528896150813000000006000023704151  000000000000000000000000000000000000000000000000000000000000000000000000000000000000000000000000000000000000000000000                          0000000000                                                                  000211
1026052455000013100000090009902404869231844037                0000000023001952890P0000000000000000000000000902010813231844037 0000000023001952890P150813000000001500023704151  000000000000000000000000000000000000000000000000000000000000000000000000000000000000000000000000000000000000000000000                          0000000000                                                                  000212
1026052455000013100000090009902404869231844041                000000002300195289180000000000000000000000000902010813231844041 00000000230019528918150813000000003000023704151  000000000000000000000000000000000000000000000000000000000000000000000000000000000000000000000000000000000000000000000                          0000000000                                                                  000213
1026052455000013100000090009902404869231844076                000000002300195289260000000000000000000000000902010813231844076 00000000230019528926150813000000003500023704151  000000000000000000000000000000000000000000000000000000000000000000000000000000000000000000000000000000000000000000000                          0000000000                                                                  000214
1026052455000013100000090009902404869231844441                000000002300195289340000000000000000000000000902010813231844441 00000000230019528934150813000000002593723704151  000000000000000000000000000000000000000000000000000000000000000000000000000000000000000000000000000000000000000000000                          0000000000                                                                  000215
1026052455000013100000090009902404869231844151                000000002300195289420000000000000000000000000902010813231844151 00000000230019528942150813000000005800023704151  000000000000000000000000000000000000000000000000000000000000000000000000000000000000000000000000000000000000000000000                          0000000000                                                                  000216
1026052455000013100000090009902404869231844068                000000002300195289500000000000000000000000000902010813231844068 00000000230019528950150813000000005000023704151  000000000000000000000000000000000000000000000000000000000000000000000000000000000000000000000000000000000000000000000                          0000000000                                                                  000217
1026052455000013100000090009902404869231844057                000000002300195289690000000000000000000000000902010813231844057 00000000230019528969150813000000001500023704151  000000000000000000000000000000000000000000000000000000000000000000000000000000000000000000000000000000000000000000000                          0000000000                                                                  000218
1026052455000013100000090009902404869231844084                000000002300195289770000000000000000000000000902010813231844084 00000000230019528977150813000000001000023704151  000000000000000000000000000000000000000000000000000000000000000000000000000000000000000000000000000000000000000000000                          0000000000                                                                  000219
1026052455000013100000090009902404869231844075                000000002300195289850000000000000000000000000902010813231844075 00000000230019528985150813000000004000023704151  000000000000000000000000000000000000000000000000000000000000000000000000000000000000000000000000000000000000000000000                          0000000000                                                                  000220
1026052455000013100000090009902404869231843984                000000002300195289930000000000000000000000000902010813231843984 00000000230019528993150813000000003000023704151  000000000000000000000000000000000000000000000000000000000000000000000000000000000000000000000000000000000000000000000                          0000000000                                                                  000221
1026052455000013100000090009902404869231844018                000000002300195290000000000000000000000000000902010813231844018 00000000230019529000150813000000005500023704151  000000000000000000000000000000000000000000000000000000000000000000000000000000000000000000000000000000000000000000000                          0000000000                                                                  000222
1026052455000013100000090009902404869231843986                000000002300195290190000000000000000000000000902010813231843986 00000000230019529019150813000000005000023704151  000000000000000000000000000000000000000000000000000000000000000000000000000000000000000000000000000000000000000000000                          0000000000                                                                  000223
1026052455000013100000090009902404869231844443                000000002300195290270000000000000000000000000902010813231844443 00000000230019529027150813000000002620023704151  000000000000000000000000000000000000000000000000000000000000000000000000000000000000000000000000000000000000000000000                          0000000000                                                                  000224
1026052455000013100000090009902404869231844175                000000002300195290350000000000000000000000000902010813231844175 00000000230019529035150813000000004000023704151  000000000000000000000000000000000000000000000000000000000000000000000000000000000000000000000000000000000000000000000                          0000000000                                                                  000225
10260524550000131000000900099024048692318444952               000000002300195290430000000000000000000000000902010813231844495200000000230019529043290813000000001316723704151  000000000000000000000000000000000000000000000000000000000000000000000000000000000000000000000000000000000000000000000                          0000000000                                                                  000226
10260524550000131000000900099024048692318444953               000000002300195290510000000000000000000000000902010813231844495300000000230019529051300913000000001316623704151  000000000000000000000000000000000000000000000000000000000000000000000000000000000000000000000000000000000000000000000                          0000000000                                                                  000227
1026052455000013100000090009902404869231844089                0000000023001952906P0000000000000000000000000902010813231844089 0000000023001952906P150813000000001500023704151  000000000000000000000000000000000000000000000000000000000000000000000000000000000000000000000000000000000000000000000                          0000000000                                                                  000228
1026052455000013100000090009902404869231844444                000000002300195290780000000000000000000000000902010813231844444 00000000230019529078150813000000001310023704151  000000000000000000000000000000000000000000000000000000000000000000000000000000000000000000000000000000000000000000000                          0000000000                                                                  000229
1026052455000013100000090009902404869231844486                000000002300195290860000000000000000000000000902010813231844486 00000000230019529086120813000000001300023704151  000000000000000000000000000000000000000000000000000000000000000000000000000000000000000000000000000000000000000000000                          0000000000                                                                  000230
1026052455000013100000090009902404869231844060                000000002300195290940000000000000000000000000902010813231844060 00000000230019529094150813000000004000023704151  000000000000000000000000000000000000000000000000000000000000000000000000000000000000000000000000000000000000000000000                          0000000000                                                                  000231
1026052455000013100000090009902404869231844445                000000002300195291080000000000000000000000000902010813231844445 00000000230019529108150813000000028861923704151  000000000000000000000000000000000000000000000000000000000000000000000000000000000000000000000000000000000000000000000                          0000000000                                                                  000232
1026052455000013100000090009902404869231844047                000000002300195291160000000000000000000000000902010813231844047 00000000230019529116290813000000000500023704151  000000000000000000000000000000000000000000000000000000000000000000000000000000000000000000000000000000000000000000000                          0000000000                                                                  000233
1026052455000013100000090009902404869231844514                000000002300195291240000000000000000000000000902010813231844514 00000000230019529124150813000000000500023704151  000000000000000000000000000000000000000000000000000000000000000000000000000000000000000000000000000000000000000000000                          0000000000                                                                  000234
1026052455000013100000090009902404869231844447                000000002300195291320000000000000000000000000902010813231844447 00000000230019529132150813000000001795423704151  000000000000000000000000000000000000000000000000000000000000000000000000000000000000000000000000000000000000000000000                          0000000000                                                                  000235
1026052455000013100000090009902404869231844448                000000002300195291400000000000000000000000000902010813231844448 00000000230019529140150813000000001710023704151  000000000000000000000000000000000000000000000000000000000000000000000000000000000000000000000000000000000000000000000                          0000000000                                                                  000236
1026052455000013100000090009902404869231844040                000000002300195291590000000000000000000000000902010813231844040 00000000230019529159150813000000003000023704151  000000000000000000000000000000000000000000000000000000000000000000000000000000000000000000000000000000000000000000000                          0000000000                                                                  000237
1026052455000013100000090009902404869231843972                000000002300195291670000000000000000000000000902010813231843972 00000000230019529167150813000000003000023704151  000000000000000000000000000000000000000000000000000000000000000000000000000000000000000000000000000000000000000000000                          0000000000                                                                  000238
1026052455000013100000090009902404869231844023                000000002300195291750000000000000000000000000902010813231844023 00000000230019529175150813000000005000023704151  000000000000000000000000000000000000000000000000000000000000000000000000000000000000000000000000000000000000000000000                          0000000000                                                                  000239
1026052455000013100000090009902404869231844036                000000002300195291830000000000000000000000000902010813231844036 00000000230019529183150813000000002000023704151  000000000000000000000000000000000000000000000000000000000000000000000000000000000000000000000000000000000000000000000                          0000000000                                                                  000240
1026052455000013100000090009902404869231844142                000000002300195291910000000000000000000000000902010813231844142 00000000230019529191150813000000004500023704151  000000000000000000000000000000000000000000000000000000000000000000000000000000000000000000000000000000000000000000000                          0000000000                                                                  000241
1026052455000013100000090009902404869231844042                000000002300195292050000000000000000000000000902010813231844042 00000000230019529205150813000000000500023704151  000000000000000000000000000000000000000000000000000000000000000000000000000000000000000000000000000000000000000000000                          0000000000                                                                  000242
1026052455000013100000090009902404869231844039                000000002300195292130000000000000000000000000902010813231844039 00000000230019529213150813000000004500023704151  000000000000000000000000000000000000000000000000000000000000000000000000000000000000000000000000000000000000000000000                          0000000000                                                                  000243
10260524550000131000000900099024048692318444851               000000002300195292210000000000000000000000000902010813231844485100000000230019529221120813000000001316723704151  000000000000000000000000000000000000000000000000000000000000000000000000000000000000000000000000000000000000000000000                          0000000000                                                                  000244
10260524550000131000000900099024048692318444852               0000000023001952923P000000000000000000000000090201081323184448520000000023001952923P100913000000001316723704151  000000000000000000000000000000000000000000000000000000000000000000000000000000000000000000000000000000000000000000000                          0000000000                                                                  000245
10260524550000131000000900099024048692318444853               000000002300195292480000000000000000000000000902010813231844485300000000230019529248101013000000001316623704151  000000000000000000000000000000000000000000000000000000000000000000000000000000000000000000000000000000000000000000000                          0000000000                                                                  000246
1026052455000013100000090009902404869231844027                000000002300195292560000000000000000000000000902010813231844027 00000000230019529256150813000000002000023704151  000000000000000000000000000000000000000000000000000000000000000000000000000000000000000000000000000000000000000000000                          0000000000                                                                  000247
1026052455000013100000090009902404869231844053                000000002300195292640000000000000000000000000902010813231844053 00000000230019529264150813000000000500023704151  000000000000000000000000000000000000000000000000000000000000000000000000000000000000000000000000000000000000000000000                          0000000000                                                                  000248
1026052455000013100000090009902404869231844449                000000002300195292720000000000000000000000000902010813231844449 00000000230019529272150813000000009345223704151  000000000000000000000000000000000000000000000000000000000000000000000000000000000000000000000000000000000000000000000                          0000000000                                                                  000249
