02RETORNO01COBRANCA       00000000000000022850ASSOC COML DE SAO PAULO       237BRADESCO       0208130160000006887                                                                                                                                                                                                                                                                          050813         000001
10260524550000131000000900099024048692318447581               000000002300195299300000000000000000000000000902020813231844758100000000230019529930020913000000000658323704151  000000000000000000000000000000000000000000000000000000000000000000000000000000000000000000000000000000000000000000000                          0000000000                                                                  000002
10260524550000131000000900099024048692318447582               000000002300195299490000000000000000000000000902020813231844758200000000230019529949011013000000000658323704151  000000000000000000000000000000000000000000000000000000000000000000000000000000000000000000000000000000000000000000000                          0000000000                                                                  000003
10260524550000131000000900099024048692318447583               000000002300195299570000000000000000000000000902020813231844758300000000230019529957311013000000000658323704151  000000000000000000000000000000000000000000000000000000000000000000000000000000000000000000000000000000000000000000000                          0000000000                                                                  000004
10260524550000131000000900099024048692318447584               000000002300195299650000000000000000000000000902020813231844758400000000230019529965021213000000000658323704151  000000000000000000000000000000000000000000000000000000000000000000000000000000000000000000000000000000000000000000000                          0000000000                                                                  000005
10260524550000131000000900099024048692318447585               000000002300195299730000000000000000000000000902020813231844758500000000230019529973301213000000000658323704151  000000000000000000000000000000000000000000000000000000000000000000000000000000000000000000000000000000000000000000000                          0000000000                                                                  000006
10260524550000131000000900099024048692318447586               000000002300195299810000000000000000000000000902020813231844758600000000230019529981290114000000000658523704151  000000000000000000000000000000000000000000000000000000000000000000000000000000000000000000000000000000000000000000000                          0000000000                                                                  000007
1026052455000013100000090009902404869231844416                0000000023001952999P0000000000000000000000000902020813231844416 0000000023001952999P150813000000034416223704151  000000000000000000000000000000000000000000000000000000000000000000000000000000000000000000000000000000000000000000000                          0000000000                                                                  000008
10260524550000131000000900099024048692317929202               000000002300195300090000000000000000000000000902020813231792920200000000230019530009250813000000001250023704151  000000000000000000000000000000000000000000000000000000000000000000000000000000000000000000000000000000000000000000000                          0000000000                                                                  000009
10260524550000131000000900099024048692317929203               000000002300195300170000000000000000000000000902020813231792920300000000230019530017280913000000001250023704151  000000000000000000000000000000000000000000000000000000000000000000000000000000000000000000000000000000000000000000000                          0000000000                                                                  000010
10260524550000131000000900099024048692317929204               000000002300195300250000000000000000000000000902020813231792920400000000230019530025251013000000001250023704151  000000000000000000000000000000000000000000000000000000000000000000000000000000000000000000000000000000000000000000000                          0000000000                                                                  000011
1026052455000013100000090009902404869231820377                000000002300195300330000000000000000000000000902020813231820377 00000000230019530033070813000000001100023704151  000000000000000000000000000000000000000000000000000000000000000000000000000000000000000000000000000000000000000000000                          0000000000                                                                  000012
10260524550000131000000900099024048692318147185               000000002300193706130000000000000000000000000906020813231814718500000000230019370613050813000000000260023706030  000000000000000000000000000000000000000000000000000000000000000000000000000000000000000260000000000000000000000000000   050813             00000000000000                                                                  000013
10260524550000131000000900099024048692318143835               000000002300193754370000000000000000000000000906020813231814383500000000230019375437050813000000000458310401367  000000000000000000000000000000000000000000000000000000000000000000000000000000000000000458300000000000000000000000000   050813             00000000000000                                                                  000014
10260524550000131000000900099024048692318203694               000000002300193991070000000000000000000000000906020813231820369400000000230019399107010813000000000416723700822  000000000000000000000000000000000000000000000000000000000000000000000000000000000000000417000000000000030000000000000   050813             00000000000000                                                                  000015
10260524550000131000000900099024048692318197232               000000002300194131770000000000000000000000000906020813231819723200000000230019413177030613000000000987500100687  000000000000000000000000000000000000000000000000000000000000000000000000000000000000000987500000000000000000000000000   050813             00000000000000                                                                  000016
10260524550000131000000900099024048692318198182               000000002300194205130000000000000000000000000906020813231819818200000000230019420513030613000000001666723701363  000000000000000000000000000000000000000000000000000000000000000000000000000000000000001738700000000007200000000000000   050813             00000000000000                                                                  000017
10260524550000131000000900099024048692318204702               0000000023001942215P000000000000000000000000090602081323182047020000000023001942215P050813000000001316700101740  000000000000000000000000000000000000000000000000000000000000000000000000000001000000001316600000000000000000000000000   050813             00000000000000                                                                  000018
10260524550000131000000900099024048692318267913               000000002300194318410000000000000000000000000906020813231826791300000000230019431841050813000000000433423701236  000000000000000000000000000000000000000000000000000000000000000000000000000000000000000433400000000000000000000000000   050813             00000000000000                                                                  000019
10260524550000131000000900099024048692318270193               000000002300194340770000000000000000000000000906020813231827019300000000230019434077050813000000001316623701415  000000000000000000000000000000000000000000000000000000000000000000000000000000000000001316600000000000000000000000000   050813             00000000000000                                                                  000020
10260524550000131000000900099024048692318271393               000000002300194371730000000000000000000000000906020813231827139300000000230019437173050813000000000687534103012  000000000000000000000000000000000000000000000000000000000000000000000000000000000000000687500000000000000000000000000   050813             00000000000000                                                                  000021
10260524550000131000000900099024048692318265753               0000000023001943901P000000000000000000000000090602081323182657530000000023001943901P050813000000000916639900346  000000000000000000000000000000000000000000000000000000000000000000000000000000000000000916600000000000000000000000000   050813             00000000000000                                                                  000022
10260524550000131000000900099024048692318269663               000000002300194391090000000000000000000000000906020813231826966300000000230019439109050813000000000658323701443  000000000000000000000000000000000000000000000000000000000000000000000000000000000000000658300000000000000000000000000   050813             00000000000000                                                                  000023
10260524550000131000000900099024048692318266073               000000002300194404330000000000000000000000000906020813231826607300000000230019440433050813000000001316623700419  000000000000000000000000000000000000000000000000000000000000000000000000000000000000001316600000000000000000000000000   050813             00000000000000                                                                  000024
10260524550000131000000900099024048692318263153               000000002300194415530000000000000000000000000906020813231826315300000000230019441553050813000000000666634100074  000000000000000000000000000000000000000000000000000000000000000000000000000000000000000666600000000000000000000000000   050813             00000000000000                                                                  000025
10260524550000131000000900099024048692318271123               000000002300194457100000000000000000000000000906020813231827112300000000230019445710050813000000000433423703296  000000000000000000000000000000000000000000000000000000000000000000000000000000000000000433400000000000000000000000000   050813             00000000000000                                                                  000026
10260524550000131000000900099024048692318264323               0000000023001944787P000000000000000000000000090602081323182643230000000023001944787P050813000000000666634102935  000000000000000000000000000000000000000000000000000000000000000000000000000000000000000666600000000000000000000000000   050813             00000000000000                                                                  000027
10260524550000131000000900099024048692318267263               000000002300194525710000000000000000000000000906020813231826726300000000230019452571050813000000001316623703257  000000000000000000000000000000000000000000000000000000000000000000000000000000000000001316600000000000000000000000000   050813             00000000000000                                                                  000028
10260524550000131000000900099024048692318262913               000000002300194565340000000000000000000000000906020813231826291300000000230019456534050813000000000666610401017  000000000000000000000000000000000000000000000000000000000000000000000000000000000000000666600000000000000000000000000   050813             00000000000000                                                                  000029
10260524550000131000000900099024048692318265273               000000002300194582000000000000000000000000000906020813231826527300000000230019458200050813000000000833403303406  000000000000000000000000000000000000000000000000000000000000000000000000000000000000000833400000000000000000000000000   050813             00000000000000                                                                  000030
10260524550000131000000900099024048692318263702               000000002300194587310000000000000000000000000906020813231826370200000000230019458731020813000000000666734100069  000000000000000000000000000000000000000000000000000000000000000000000000000000000000000666700000000000000000000000000   050813             00000000000000                                                                  000031
10260524550000131000000900099024048691202979601               000000002300194615890000000000000000000000000906020813120297960100000000230019461589020813000000000466734107129  000000000000000000000000000000000000000000000000000000000000000000000000000000000000000466700000000000000000000000000   050813             00000000000000                                                                  000032
10260524550000131000000900099024048691202979602               000000002300194615970000000000000000000000000906020813120297960200000000230019461597020813000000000466734107129  000000000000000000000000000000000000000000000000000000000000000000000000000000000000000466700000000000000000000000000   050813             00000000000000                                                                  000033
10260524550000131000000900099024048691202979603               000000002300194616000000000000000000000000000906020813120297960300000000230019461600020813000000000466634107129  000000000000000000000000000000000000000000000000000000000000000000000000000000000000000466600000000000000000000000000   050813             00000000000000                                                                  000034
1026052455000013100000090009902404869231831328                000000002300194660680000000000000000000000000906020813231831328 00000000230019466068300613000000001800023703134  000000000000000000000000000000000000000000000000000000000000000000000000000000000000001805200000000000520000000000000   050813             00000000000000                                                                  000035
10260524550000131000000900099024048692318331602               000000002300194662620000000000000000000000000906020813231833160200000000230019466262020813000000000916734101546  000000000000000000000000000000000000000000000000000000000000000000000000000001000000000916600000000000000000000000000   050813             00000000000000                                                                  000036
10260524550000131000000900099024048692318329492               000000002300194663190000000000000000000000000906020813231832949200000000230019466319020813000000000666703304503  000000000000000000000000000000000000000000000000000000000000000000000000000001000000000666600000000000000000000000000   050813             00000000000000                                                                  000037
10260524550000131000000900099024048692318334742               000000002300194664320000000000000000000000000906020813231833474200000000230019466432020813000000001316734100060  000000000000000000000000000000000000000000000000000000000000000000000000000001000000001316600000000000000000000000000   050813             00000000000000                                                                  000038
10260524550000131000000900099024048692318331492               000000002300194668070000000000000000000000000906020813231833149200000000230019466807020813000000001666734100189  000000000000000000000000000000000000000000000000000000000000000000000000000001000000001666600000000000000000000000000   050813             00000000000000                                                                  000039
10260524550000131000000900099024048692318333762               000000002300194669630000000000000000000000000906020813231833376200000000230019466963020813000000001316734100764  000000000000000000000000000000000000000000000000000000000000000000000000000001000000001316600000000000000000000000000   050813             00000000000000                                                                  000040
10260524550000131000000900099024048692318332742               000000002300194670720000000000000000000000000906020813231833274200000000230019467072020813000000001975023700092  000000000000000000000000000000000000000000000000000000000000000000000000000000000000001975000000000000000000000000000   050813             00000000000000                                                                  000041
10260524550000131000000900099024048692318331832               000000002300194673660000000000000000000000000906020813231833183200000000230019467366020813000000001316700101198  000000000000000000000000000000000000000000000000000000000000000000000000000001000000001316600000000000000000000000000   050813             00000000000000                                                                  000042
10260524550000131000000900099024048692318331833               000000002300194673740000000000000000000000000906020813231833183300000000230019467374020913000000001316600101198  000000000000000000000000000000000000000000000000000000000000000000000000000000000000001316600000000000000000000000000   050813             00000000000000                                                                  000043
10260524550000131000000900099024048692318330632               000000002300194674120000000000000000000000000906020813231833063200000000230019467412020813000000000666734100177  000000000000000000000000000000000000000000000000000000000000000000000000000001000000000666600000000000000000000000000   050813             00000000000000                                                                  000044
10260524550000131000000900099024048692318325902               000000002300194677300000000000000000000000000906020813231832590200000000230019467730020813000000000666723701495  000000000000000000000000000000000000000000000000000000000000000000000000000000000000000666700000000000000000000000000   050813             00000000000000                                                                  000045
10260524550000131000000900099024048692318333542               000000002300194678030000000000000000000000000906020813231833354200000000230019467803020813000000000650034107471  000000000000000000000000000000000000000000000000000000000000000000000000000000000000000650000000000000000000000000000   050813             00000000000000                                                                  000046
10260524550000131000000900099024048692318331052               000000002300194678380000000000000000000000000906020813231833105200000000230019467838020813000000001375034100354  000000000000000000000000000000000000000000000000000000000000000000000000000000000000001375000000000000000000000000000   050813             00000000000000                                                                  000047
10260524550000131000000900099024048692318328952               0000000023001946815P000000000000000000000000090602081323183289520000000023001946815P020813000000000666734100467  000000000000000000000000000000000000000000000000000000000000000000000000000001000000000666600000000000000000000000000   050813             00000000000000                                                                  000048
10260524550000131000000900099024048692318329882               000000002300194682730000000000000000000000000906020813231832988200000000230019468273020813000000000200023700125  000000000000000000000000000000000000000000000000000000000000000000000000000000000000000200000000000000000000000000000   050813             00000000000000                                                                  000049
10260524550000131000000900099024048692318331982               000000002300194683700000000000000000000000000906020813231833198200000000230019468370020813000000001316734103095  000000000000000000000000000000000000000000000000000000000000000000000000000000000000001316700000000000000000000000000   050813             00000000000000                                                                  000050
10260524550000131000000900099024048692318327852               000000002300194685670000000000000000000000000906020813231832785200000000230019468567020813000000000666700106997  000000000000000000000000000000000000000000000000000000000000000000000000000001000000000666600000000000000000000000000   050813             00000000000000                                                                  000051
10260524550000131000000900099024048692318327552               000000002300194685910000000000000000000000000906020813231832755200000000230019468591020813000000000666734108699  000000000000000000000000000000000000000000000000000000000000000000000000000001000000000666600000000000000000000000000   050813             00000000000000                                                                  000052
10260524550000131000000900099024048692318332792               000000002300194686560000000000000000000000000906020813231833279200000000230019468656020813000000001250010401370  000000000000000000000000000000000000000000000000000000000000000000000000000000000000001250000000000000000000000000000   050813             00000000000000                                                                  000053
10260524550000131000000900099024048692318334312               000000002300194687530000000000000000000000000906020813231833431200000000230019468753020813000000000658300103011  000000000000000000000000000000000000000000000000000000000000000000000000000000000000000658500000000000020000000000000   050813             00000000000000                                                                  000054
10260524550000131000000900099024048692318331252               000000002300194688690000000000000000000000000906020813231833125200000000230019468869020813000000001975023702207  000000000000000000000000000000000000000000000000000000000000000000000000000000000000001975000000000000000000000000000   050813             00000000000000                                                                  000055
10260524550000131000000900099024048692318331022               000000002300194691720000000000000000000000000906020813231833102200000000230019469172020813000000001316734100772  000000000000000000000000000000000000000000000000000000000000000000000000000001000000001316600000000000000000000000000   050813             00000000000000                                                                  000056
10260524550000131000000900099024048692318330352               000000002300194692020000000000000000000000000906020813231833035200000000230019469202020813000000000233303300143  000000000000000000000000000000000000000000000000000000000000000000000000000000000000000233400000000000010000000000000   050813             00000000000000                                                                  000057
10260524550000131000000900099024048692318331312               000000002300194692450000000000000000000000000906020813231833131200000000230019469245020813000000001316734100056  000000000000000000000000000000000000000000000000000000000000000000000000000001000000001316600000000000000000000000000   050813             00000000000000                                                                  000058
10260524550000131000000900099024048692318329372               000000002300194692880000000000000000000000000906020813231832937200000000230019469288020813000000000833374500039  000000000000000000000000000000000000000000000000000000000000000000000000000000000000000833300000000000000000000000000   050813             00000000000000                                                                  000059
10260524550000131000000900099024048692318331522               000000002300194694070000000000000000000000000906020813231833152200000000230019469407020813000000000987523700099  000000000000000000000000000000000000000000000000000000000000000000000000000000000000000987500000000000000000000000000   050813             00000000000000                                                                  000060
10260524550000131000000900099024048692318332042               000000002300194695980000000000000000000000000906020813231833204200000000230019469598020813000000001666723703381  000000000000000000000000000000000000000000000000000000000000000000000000000001000000001666600000000000000000000000000   050813             00000000000000                                                                  000061
10260524550000131000000900099024048692318332012               0000000023001946975P000000000000000000000000090602081323183320120000000023001946975P020813000000000833339900223  000000000000000000000000000000000000000000000000000000000000000000000000000000000000000833500000000000020000000000000   050813             00000000000000                                                                  000062
10260524550000131000000900099024048692318332472               000000002300194699890000000000000000000000000906020813231833247200000000230019469989020813000000000916723701415  000000000000000000000000000000000000000000000000000000000000000000000000000000000000000916700000000000000000000000000   050813             00000000000000                                                                  000063
10260524550000131000000900099024048692318332812               000000002300194702430000000000000000000000000906020813231833281200000000230019470243020813000000001316734108729  000000000000000000000000000000000000000000000000000000000000000000000000000001000000001316600000000000000000000000000   050813             00000000000000                                                                  000064
10260524550000131000000900099024048692318331042               000000002300194702780000000000000000000000000906020813231833104200000000230019470278020813000000001316734108093  000000000000000000000000000000000000000000000000000000000000000000000000000001000000001316600000000000000000000000000   050813             00000000000000                                                                  000065
10260524550000131000000900099024048692318333222               000000002300194703320000000000000000000000000906020813231833322200000000230019470332020813000000000458323700545  000000000000000000000000000000000000000000000000000000000000000000000000000000000000000458300000000000000000000000000   050813             00000000000000                                                                  000066
10260524550000131000000900099024048692318330962               000000002300194704210000000000000000000000000906020813231833096200000000230019470421020813000000001666703304633  000000000000000000000000000000000000000000000000000000000000000000000000000001000000001666600000000000000000000000000   050813             00000000000000                                                                  000067
10260524550000131000000900099024048692318332702               000000002300194704800000000000000000000000000906020813231833270200000000230019470480020813000000001975039900728  000000000000000000000000000000000000000000000000000000000000000000000000000000000000001975000000000000000000000000000   050813             00000000000000                                                                  000068
10260524550000131000000900099024048692318328982               0000000023001947060P000000000000000000000000090602081323183289820000000023001947060P020813000000000666723701743  000000000000000000000000000000000000000000000000000000000000000000000000000000000000000666700000000000000000000000000   050813             00000000000000                                                                  000069
10260524550000131000000900099024048692318334802               000000002300194708120000000000000000000000000906020813231833480200000000230019470812020813000000000458334108611  000000000000000000000000000000000000000000000000000000000000000000000000000000000000000458500000000000020000000000000   050813             00000000000000                                                                  000070
10260524550000131000000900099024048692318334322               0000000023001947107P000000000000000000000000090602081323183343220000000023001947107P020813000000001316734105591  000000000000000000000000000000000000000000000000000000000000000000000000000001000000001316600000000000000000000000000   050813             00000000000000                                                                  000071
10260524550000131000000900099024048692318331182               000000002300194711340000000000000000000000000906020813231833118200000000230019471134020813000000001316734100375  000000000000000000000000000000000000000000000000000000000000000000000000000001000000001316600000000000000000000000000   050813             00000000000000                                                                  000072
10260524550000131000000900099024048692318330592               000000002300194711690000000000000000000000000906020813231833059200000000230019471169020813000000001466723702884  000000000000000000000000000000000000000000000000000000000000000000000000000000000000001466700000000000000000000000000   050813             00000000000000                                                                  000073
10260524550000131000000900099024048692318330432               000000002300194712070000000000000000000000000906020813231833043200000000230019471207020813000000001000003303827  000000000000000000000000000000000000000000000000000000000000000000000000000000000000001000000000000000000000000000000   050813             00000000000000                                                                  000074
10260524550000131000000900099024048692318334882               000000002300194713710000000000000000000000000906020813231833488200000000230019471371020813000000001666710403124  000000000000000000000000000000000000000000000000000000000000000000000000000001000000001666600000000000000000000000000   050813             00000000000000                                                                  000075
10260524550000131000000900099024048692318336262               000000002300194715840000000000000000000000000906020813231833626200000000230019471584020813000000001316734109114  000000000000000000000000000000000000000000000000000000000000000000000000000001000000001316600000000000000000000000000   050813             00000000000000                                                                  000076
10260524550000131000000900099024048692318329272               000000002300194716140000000000000000000000000906020813231832927200000000230019471614020813000000002200000102434  000000000000000000000000000000000000000000000000000000000000000000000000000000000000002200000000000000000000000000000   050813             00000000000000                                                                  000077
10260524550000131000000900099024048692318326932               000000002300194718780000000000000000000000000906020813231832693200000000230019471878020813000000000666734100081  000000000000000000000000000000000000000000000000000000000000000000000000000001000000000666600000000000000000000000000   050813             00000000000000                                                                  000078
10260524550000131000000900099024048692318333552               000000002300194719080000000000000000000000000906020813231833355200000000230019471908020813000000000658323703267  000000000000000000000000000000000000000000000000000000000000000000000000000000000000000658300000000000000000000000000   050813             00000000000000                                                                  000079
10260524550000131000000900099024048692318334342               000000002300194721570000000000000000000000000906020813231833434200000000230019472157020813000000000987500102791  000000000000000000000000000000000000000000000000000000000000000000000000000000000000000987500000000000000000000000000   050813             00000000000000                                                                  000080
10260524550000131000000900099024048692318335642               000000002300194722890000000000000000000000000906020813231833564200000000230019472289020813000000001316710401367  000000000000000000000000000000000000000000000000000000000000000000000000000001000000001316600000000000000000000000000   050813             00000000000000                                                                  000081
10260524550000131000000900099024048692318329452               000000002300194723510000000000000000000000000906020813231832945200000000230019472351020813000000000666734106636  000000000000000000000000000000000000000000000000000000000000000000000000000000000000000666700000000000000000000000000   050813             00000000000000                                                                  000082
10260524550000131000000900099024048692318328102               000000002300194724830000000000000000000000000906020813231832810200000000230019472483020813000000000666723703134  000000000000000000000000000000000000000000000000000000000000000000000000000000000000000666700000000000000000000000000   050813             00000000000000                                                                  000083
10260524550000131000000900099024048692318332572               0000000023001947253P000000000000000000000000090602081323183325720000000023001947253P020813000000001666734100757  000000000000000000000000000000000000000000000000000000000000000000000000000000000000001666700000000000000000000000000   050813             00000000000000                                                                  000084
10260524550000131000000900099024048692318331882               000000002300194725990000000000000000000000000906020813231833188200000000230019472599020813000000000687534100695  000000000000000000000000000000000000000000000000000000000000000000000000000000000000000687500000000000000000000000000   050813             00000000000000                                                                  000085
10260524550000131000000900099024048692318331692               000000002300194726450000000000000000000000000906020813231833169200000000230019472645020813000000000916703300212  000000000000000000000000000000000000000000000000000000000000000000000000000001000000000916600000000000000000000000000   050813             00000000000000                                                                  000086
10260524550000131000000900099024048692318334822               000000002300194727690000000000000000000000000906020813231833482200000000230019472769020813000000001316734106876  000000000000000000000000000000000000000000000000000000000000000000000000000001000000001316600000000000000000000000000   050813             00000000000000                                                                  000087
10260524550000131000000900099024048692318330472               000000002300194728230000000000000000000000000906020813231833047200000000230019472823020813000000000666734106453  000000000000000000000000000000000000000000000000000000000000000000000000000001000000000666600000000000000000000000000   050813             00000000000000                                                                  000088
10260524550000131000000900099024048692318328292               000000002300194728660000000000000000000000000906020813231832829200000000230019472866020813000000000833300100018  000000000000000000000000000000000000000000000000000000000000000000000000000000000000000833400000000000010000000000000   050813             00000000000000                                                                  000089
10260524550000131000000900099024048692318328402               000000002300194729470000000000000000000000000906020813231832840200000000230019472947020813000000001466723701480  000000000000000000000000000000000000000000000000000000000000000000000000000000000000001466700000000000000000000000000   050813             00000000000000                                                                  000090
10260524550000131000000900099024048692318331712               0000000023001947298P000000000000000000000000090602081323183317120000000023001947298P020813000000000458334104073  000000000000000000000000000000000000000000000000000000000000000000000000000000000000000458500000000000020000000000000   050813             00000000000000                                                                  000091
10260524550000131000000900099024048692318328112               000000002300194731450000000000000000000000000906020813231832811200000000230019473145020813000000000666700100687  000000000000000000000000000000000000000000000000000000000000000000000000000000000000000666700000000000000000000000000   050813             00000000000000                                                                  000092
10260524550000131000000900099024048692318331642               000000002300194732850000000000000000000000000906020813231833164200000000230019473285020813000000000916734100757  000000000000000000000000000000000000000000000000000000000000000000000000000001000000000916600000000000000000000000000   050813             00000000000000                                                                  000093
10260524550000131000000900099024048692318326972               000000002300194733900000000000000000000000000906020813231832697200000000230019473390020813000000000666723701449  000000000000000000000000000000000000000000000000000000000000000000000000000000000000000666700000000000000000000000000   050813             00000000000000                                                                  000094
10260524550000131000000900099024048692318331412               000000002300194735790000000000000000000000000906020813231833141200000000230019473579020813000000001316734100682  000000000000000000000000000000000000000000000000000000000000000000000000000001000000001316600000000000000000000000000   050813             00000000000000                                                                  000095
10260524550000131000000900099024048692318328832               000000002300194736410000000000000000000000000906020813231832883200000000230019473641020813000000000666734100754  000000000000000000000000000000000000000000000000000000000000000000000000000000000000000666700000000000000000000000000   050813             00000000000000                                                                  000096
10260524550000131000000900099024048692318333022               000000002300194736760000000000000000000000000906020813231833302200000000230019473676020813000000000658334100452  000000000000000000000000000000000000000000000000000000000000000000000000000000000000000658500000000000020000000000000   050813             00000000000000                                                                  000097
10260524550000131000000900099024048692318328842               000000002300194737490000000000000000000000000906020813231832884200000000230019473749020813000000000833334100738  000000000000000000000000000000000000000000000000000000000000000000000000000000000000000833400000000000010000000000000   050813             00000000000000                                                                  000098
10260524550000131000000900099024048692318335142               000000002300194740360000000000000000000000000906020813231833514200000000230019474036020813000000001316700104309  000000000000000000000000000000000000000000000000000000000000000000000000000000000000001316700000000000000000000000000   050813             00000000000000                                                                  000099
10260524550000131000000900099024048692318330952               000000002300194740600000000000000000000000000906020813231833095200000000230019474060020813000000000916700107842  000000000000000000000000000000000000000000000000000000000000000000000000000001000000000916600000000000000000000000000   050813             00000000000000                                                                  000100
10260524550000131000000900099024048692318330252               000000002300194741760000000000000000000000000906020813231833025200000000230019474176020813000000001466734100073  000000000000000000000000000000000000000000000000000000000000000000000000000001000000001466600000000000000000000000000   050813             00000000000000                                                                  000101
10260524550000131000000900099024048692318327582               000000002300194742730000000000000000000000000906020813231832758200000000230019474273020813000000000833300103330  000000000000000000000000000000000000000000000000000000000000000000000000000000000000000833400000000000010000000000000   050813             00000000000000                                                                  000102
10260524550000131000000900099024048692318334042               000000002300194743890000000000000000000000000906020813231833404200000000230019474389020813000000001316739900917  000000000000000000000000000000000000000000000000000000000000000000000000000001000000001316600000000000000000000000000   050813             00000000000000                                                                  000103
10260524550000131000000900099024048692318332182               000000002300194746130000000000000000000000000906020813231833218200000000230019474613020813000000001316710400612  000000000000000000000000000000000000000000000000000000000000000000000000000001000000001316600000000000000000000000000   050813             00000000000000                                                                  000104
10260524550000131000000900099024048692318332052               000000002300194748180000000000000000000000000906020813231833205200000000230019474818020813000000001316734100176  000000000000000000000000000000000000000000000000000000000000000000000000000001000000001316600000000000000000000000000   050813             00000000000000                                                                  000105
10260524550000131000000900099024048692318332122               000000002300194748850000000000000000000000000906020813231833212200000000230019474885020813000000000833334100770  000000000000000000000000000000000000000000000000000000000000000000000000000000000000000833300000000000000000000000000   050813             00000000000000                                                                  000106
10260524550000131000000900099024048692318329132               000000002300194751130000000000000000000000000906020813231832913200000000230019475113020813000000002200023703393  000000000000000000000000000000000000000000000000000000000000000000000000000000000000002200000000000000000000000000000   050813             00000000000000                                                                  000107
10260524550000131000000900099024048692318333722               000000002300194751640000000000000000000000000906020813231833372200000000230019475164020813000000000833334107171  000000000000000000000000000000000000000000000000000000000000000000000000000000000000000833500000000000020000000000000   050813             00000000000000                                                                  000108
10260524550000131000000900099024048692318333582               000000002300194752370000000000000000000000000906020813231833358200000000230019475237020813000000000658323702859  000000000000000000000000000000000000000000000000000000000000000000000000000000000000000658300000000000000000000000000   050813             00000000000000                                                                  000109
10260524550000131000000900099024048692318327772               000000002300194754580000000000000000000000000906020813231832777200000000230019475458020813000000000833334100175  000000000000000000000000000000000000000000000000000000000000000000000000000000000000000833400000000000010000000000000   050813             00000000000000                                                                  000110
10260524550000131000000900099024048692318332452               000000002300194755550000000000000000000000000906020813231833245200000000230019475555020813000000001316700102807  000000000000000000000000000000000000000000000000000000000000000000000000000000000000001316700000000000000000000000000   050813             00000000000000                                                                  000111
10260524550000131000000900099024048692318327862               000000002300194756280000000000000000000000000906020813231832786200000000230019475628020813000000000833334100440  000000000000000000000000000000000000000000000000000000000000000000000000000000000000000833400000000000010000000000000   050813             00000000000000                                                                  000112
10260524550000131000000900099024048692318331902               000000002300194756520000000000000000000000000906020813231833190200000000230019475652020813000000001975010403325  000000000000000000000000000000000000000000000000000000000000000000000000000000000000001975000000000000000000000000000   050813             00000000000000                                                                  000113
10260524550000131000000900099024048692318332822               000000002300194756790000000000000000000000000906020813231833282200000000230019475679020813000000001316723703267  000000000000000000000000000000000000000000000000000000000000000000000000000000000000001316700000000000000000000000000   050813             00000000000000                                                                  000114
10260524550000131000000900099024048692318330922               000000002300194757170000000000000000000000000906020813231833092200000000230019475717020813000000001316723702036  000000000000000000000000000000000000000000000000000000000000000000000000000001000000001316600000000000000000000000000   050813             00000000000000                                                                  000115
10260524550000131000000900099024048692318331872               0000000023001947575P000000000000000000000000090602081323183318720000000023001947575P020813000000000987523700545  000000000000000000000000000000000000000000000000000000000000000000000000000000000000000987500000000000000000000000000   050813             00000000000000                                                                  000116
10260524550000131000000900099024048692318327422               000000002300194757920000000000000000000000000906020813231832742200000000230019475792020813000000000666703300108  000000000000000000000000000000000000000000000000000000000000000000000000000001000000000666600000000000000000000000000   050813             00000000000000                                                                  000117
10260524550000131000000900099024048692318331112               000000002300194758220000000000000000000000000906020813231833111200000000230019475822020813000000001666734100262  000000000000000000000000000000000000000000000000000000000000000000000000000000000000001666700000000000000000000000000   050813             00000000000000                                                                  000118
10260524550000131000000900099024048692318328882               0000000023001947642P000000000000000000000000090602081323183288820000000023001947642P020813000000000666723700830  000000000000000000000000000000000000000000000000000000000000000000000000000000000000000666700000000000000000000000000   050813             00000000000000                                                                  000119
10260524550000131000000900099024048692318332262               000000002300194764700000000000000000000000000906020813231833226200000000230019476470020813000000001375000104866  000000000000000000000000000000000000000000000000000000000000000000000000000000000000001375000000000000000000000000000   050813             00000000000000                                                                  000120
10260524550000131000000900099024048692318332382               000000002300194766240000000000000000000000000906020813231833238200000000230019476624020813000000001375034100440  000000000000000000000000000000000000000000000000000000000000000000000000000000000000001375000000000000000000000000000   050813             00000000000000                                                                  000121
10260524550000131000000900099024048692318328962               000000002300194766590000000000000000000000000906020813231832896200000000230019476659020813000000000666723700298  000000000000000000000000000000000000000000000000000000000000000000000000000000000000000666700000000000000000000000000   050813             00000000000000                                                                  000122
10260524550000131000000900099024048692318335002               000000002300194767050000000000000000000000000906020813231833500200000000230019476705020813000000000658323701074  000000000000000000000000000000000000000000000000000000000000000000000000000000000000000658300000000000000000000000000   050813             00000000000000                                                                  000123
10260524550000131000000900099024048692318331592               000000002300194769850000000000000000000000000906020813231833159200000000230019476985020813000000001666700101204  000000000000000000000000000000000000000000000000000000000000000000000000000000000000001666700000000000000000000000000   050813             00000000000000                                                                  000124
10260524550000131000000900099024048692318332132               000000002300194770270000000000000000000000000906020813231833213200000000230019477027020813000000001666734108706  000000000000000000000000000000000000000000000000000000000000000000000000000001000000001666600000000000000000000000000   050813             00000000000000                                                                  000125
10260524550000131000000900099024048692318334842               000000002300194770940000000000000000000000000906020813231833484200000000230019477094020813000000000658339900342  000000000000000000000000000000000000000000000000000000000000000000000000000000000000000658500000000000020000000000000   050813             00000000000000                                                                  000126
10260524550000131000000900099024048692318332202               000000002300194772560000000000000000000000000906020813231833220200000000230019477256020813000000000916723703134  000000000000000000000000000000000000000000000000000000000000000000000000000000000000000916700000000000000000000000000   050813             00000000000000                                                                  000127
10260524550000131000000900099024048692318332592               000000002300194773880000000000000000000000000906020813231833259200000000230019477388020813000000001316734108571  000000000000000000000000000000000000000000000000000000000000000000000000000001000000001316600000000000000000000000000   050813             00000000000000                                                                  000128
10260524550000131000000900099024048692318327492               000000002300194776710000000000000000000000000906020813231832749200000000230019477671020813000000001466734106368  000000000000000000000000000000000000000000000000000000000000000000000000000001000000001466600000000000000000000000000   050813             00000000000000                                                                  000129
10260524550000131000000900099024048692318326782               0000000023001947771P000000000000000000000000090602081323183267820000000023001947771P020813000000000666700101207  000000000000000000000000000000000000000000000000000000000000000000000000000001000000000666600000000000000000000000000   050813             00000000000000                                                                  000130
10260524550000131000000900099024048692318333192               000000002300194777870000000000000000000000000906020813231833319200000000230019477787020813000000000833334101608  000000000000000000000000000000000000000000000000000000000000000000000000000000000000000833500000000000020000000000000   050813             00000000000000                                                                  000131
10260524550000131000000900099024048692318333852               000000002300194779140000000000000000000000000906020813231833385200000000230019477914020813000000001316734100641  000000000000000000000000000000000000000000000000000000000000000000000000000000000000001316700000000000000000000000000   050813             00000000000000                                                                  000132
10260524550000131000000900099024048692318332982               000000002300194780740000000000000000000000000906020813231833298200000000230019478074020813000000001375023702526  000000000000000000000000000000000000000000000000000000000000000000000000000000000000001375000000000000000000000000000   050813             00000000000000                                                                  000133
10260524550000131000000900099024048692318328942               000000002300194783920000000000000000000000000906020813231832894200000000230019478392020813000000000666734107171  000000000000000000000000000000000000000000000000000000000000000000000000000001000000000666600000000000000000000000000   050813             00000000000000                                                                  000134
10260524550000131000000900099024048692318329282               000000002300194788050000000000000000000000000906020813231832928200000000230019478805020813000000001000023702199  000000000000000000000000000000000000000000000000000000000000000000000000000000000000001000000000000000000000000000000   050813             00000000000000                                                                  000135
10260524550000131000000900099024048692318335962               000000002300194788480000000000000000000000000906020813231833596200000000230019478848020813000000001250023701974  000000000000000000000000000000000000000000000000000000000000000000000000000000000000001250000000000000000000000000000   050813             00000000000000                                                                  000136
10260524550000131000000900099024048692318331302               000000002300194790620000000000000000000000000906020813231833130200000000230019479062020813000000001316734100765  000000000000000000000000000000000000000000000000000000000000000000000000000001000000001316600000000000000000000000000   050813             00000000000000                                                                  000137
10260524550000131000000900099024048692318333032               000000002300194791000000000000000000000000000906020813231833303200000000230019479100020813000000001316739900467  000000000000000000000000000000000000000000000000000000000000000000000000000001000000001316600000000000000000000000000   050813             00000000000000                                                                  000138
10260524550000131000000900099024048692318332292               000000002300194791860000000000000000000000000906020813231833229200000000230019479186020813000000001666734104833  000000000000000000000000000000000000000000000000000000000000000000000000000001000000001666600000000000000000000000000   050813             00000000000000                                                                  000139
10260524550000131000000900099024048692318329392               000000002300194792320000000000000000000000000906020813231832939200000000230019479232020813000000000833303304265  000000000000000000000000000000000000000000000000000000000000000000000000000000000000000833400000000000010000000000000   050813             00000000000000                                                                  000140
10260524550000131000000900099024048692318328722               000000002300194792670000000000000000000000000906020813231832872200000000230019479267020813000000000833323702247  000000000000000000000000000000000000000000000000000000000000000000000000000000000000000833300000000000000000000000000   050813             00000000000000                                                                  000141
10260524550000131000000900099024048692318328562               000000002300194794610000000000000000000000000906020813231832856200000000230019479461020813000000001466734107653  000000000000000000000000000000000000000000000000000000000000000000000000000000000000001466700000000000000000000000000   050813             00000000000000                                                                  000142
10260524550000131000000900099024048692318330222               000000002300194795500000000000000000000000000906020813231833022200000000230019479550020813000000000833323703381  000000000000000000000000000000000000000000000000000000000000000000000000000000000000000833300000000000000000000000000   050813             00000000000000                                                                  000143
10260524550000131000000900099024048692318334192               000000002300194797630000000000000000000000000906020813231833419200000000230019479763020813000000001316734108867  000000000000000000000000000000000000000000000000000000000000000000000000000001000000001316600000000000000000000000000   050813             00000000000000                                                                  000144
10260524550000131000000900099024048692318332232               000000002300194799330000000000000000000000000906020813231833223200000000230019479933020813000000001666734102977  000000000000000000000000000000000000000000000000000000000000000000000000000001000000001666600000000000000000000000000   050813             00000000000000                                                                  000145
10260524550000131000000900099024048692318330212               000000002300194799680000000000000000000000000906020813231833021200000000230019479968020813000000000666734100844  000000000000000000000000000000000000000000000000000000000000000000000000000001000000000666600000000000000000000000000   050813             00000000000000                                                                  000146
10260524550000131000000900099024048692318332542               000000002300194800360000000000000000000000000906020813231833254200000000230019480036020813000000001316723700420  000000000000000000000000000000000000000000000000000000000000000000000000000000000000001316700000000000000000000000000   050813             00000000000000                                                                  000147
10260524550000131000000900099024048692318330972               000000002300194801090000000000000000000000000906020813231833097200000000230019480109020813000000001316710401006  000000000000000000000000000000000000000000000000000000000000000000000000000001000000001316600000000000000000000000000   050813             00000000000000                                                                  000148
10260524550000131000000900099024048692318330072               000000002300194806640000000000000000000000000906020813231833007200000000230019480664020813000000000666734103755  000000000000000000000000000000000000000000000000000000000000000000000000000000000000000666700000000000000000000000000   050813             00000000000000                                                                  000149
10260524550000131000000900099024048692318330542               000000002300194807290000000000000000000000000906020813231833054200000000230019480729020813000000001466723700501  000000000000000000000000000000000000000000000000000000000000000000000000000000000000001466700000000000000000000000000   050813             00000000000000                                                                  000150
10260524550000131000000900099024048692318330732               000000002300194807530000000000000000000000000906020813231833073200000000230019480753020813000000002200034101165  000000000000000000000000000000000000000000000000000000000000000000000000000000000000002200000000000000000000000000000   050813             00000000000000                                                                  000151
10260524550000131000000900099024048692318329002               0000000023001948077P000000000000000000000000090602081323183290020000000023001948077P020813000000000666723703769  000000000000000000000000000000000000000000000000000000000000000000000000000000000000000666700000000000000000000000000   050813             00000000000000                                                                  000152
10260524550000131000000900099024048692318332582               000000002300194808340000000000000000000000000906020813231833258200000000230019480834020813000000001316734102925  000000000000000000000000000000000000000000000000000000000000000000000000000001000000001316600000000000000000000000000   050813             00000000000000                                                                  000153
10260524550000131000000900099024048692318327682               000000002300194808770000000000000000000000000906020813231832768200000000230019480877020813000000000666734100210  000000000000000000000000000000000000000000000000000000000000000000000000000001000000000666600000000000000000000000000   050813             00000000000000                                                                  000154
10260524550000131000000900099024048692318329012               000000002300194809230000000000000000000000000906020813231832901200000000230019480923020813000000000933323700549  000000000000000000000000000000000000000000000000000000000000000000000000000000000000000933300000000000000000000000000   050813             00000000000000                                                                  000155
10260524550000131000000900099024048692318330102               0000000023001948130P000000000000000000000000090602081323183301020000000023001948130P020813000000001316700104994  000000000000000000000000000000000000000000000000000000000000000000000000000001000000001316600000000000000000000000000   050813             00000000000000                                                                  000156
10260524550000131000000900099024048692318332512               000000002300194814070000000000000000000000000906020813231833251200000000230019481407020813000000001316700106811  000000000000000000000000000000000000000000000000000000000000000000000000000001000000001316600000000000000000000000000   050813             00000000000000                                                                  000157
10260524550000131000000900099024048692318336282               000000002300194819110000000000000000000000000906020813231833628200000000230019481911020813000000001316734101571  000000000000000000000000000000000000000000000000000000000000000000000000000000000000001316700000000000000000000000000   050813             00000000000000                                                                  000158
10260524550000131000000900099024048692318330122               000000002300194820980000000000000000000000000906020813231833012200000000230019482098020813000000001466723700104  000000000000000000000000000000000000000000000000000000000000000000000000000000000000001466700000000000000000000000000   050813             00000000000000                                                                  000159
10260524550000131000000900099024048692318330272               000000002300194822920000000000000000000000000906020813231833027200000000230019482292020813000000000666710402928  000000000000000000000000000000000000000000000000000000000000000000000000000001000000000666600000000000000000000000000   050813             00000000000000                                                                  000160
10260524550000131000000900099024048692318330602               000000002300194823650000000000000000000000000906020813231833060200000000230019482365020813000000001000023700496  000000000000000000000000000000000000000000000000000000000000000000000000000000000000001000000000000000000000000000000   050813             00000000000000                                                                  000161
10260524550000131000000900099024048692318335972               000000002300194829340000000000000000000000000906020813231833597200000000230019482934020813000000000458334100177  000000000000000000000000000000000000000000000000000000000000000000000000000000000000000458500000000000020000000000000   050813             00000000000000                                                                  000162
10260524550000131000000900099024048692318328992               000000002300194830190000000000000000000000000906020813231832899200000000230019483019020813000000000833334108495  000000000000000000000000000000000000000000000000000000000000000000000000000000000000000833400000000000010000000000000   050813             00000000000000                                                                  000163
10260524550000131000000900099024048692318336122               000000002300194830430000000000000000000000000906020813231833612200000000230019483043020813000000000295010403581  000000000000000000000000000000000000000000000000000000000000000000000000000000000000000295000000000000000000000000000   050813             00000000000000                                                                  000164
10260524550000131000000900099024048692318330162               0000000023001948306P000000000000000000000000090602081323183301620000000023001948306P020813000000001466734100138  000000000000000000000000000000000000000000000000000000000000000000000000000001000000001466600000000000000000000000000   050813             00000000000000                                                                  000165
10260524550000131000000900099024048692318336322               000000002300194830940000000000000000000000000906020813231833632200000000230019483094020813000000001375023701958  000000000000000000000000000000000000000000000000000000000000000000000000000000000000001375000000000000000000000000000   050813             00000000000000                                                                  000166
10260524550000131000000900099024048692318327952               000000002300194831830000000000000000000000000906020813231832795200000000230019483183020813000000000666734108137  000000000000000000000000000000000000000000000000000000000000000000000000000001000000000666600000000000000000000000000   050813             00000000000000                                                                  000167
10260524550000131000000900099024048692318335202               000000002300194834930000000000000000000000000906020813231833520200000000230019483493020813000000000658323703504  000000000000000000000000000000000000000000000000000000000000000000000000000000000000000658300000000000000000000000000   050813             00000000000000                                                                  000168
10260524550000131000000900099024048692318333602               000000002300194839730000000000000000000000000906020813231833360200000000230019483973020813000000000658323700091  000000000000000000000000000000000000000000000000000000000000000000000000000000000000000658300000000000000000000000000   050813             00000000000000                                                                  000169
10260524550000131000000900099024048692318331922               000000002300194845380000000000000000000000000906020813231833192200000000230019484538020813000000001666734100585  000000000000000000000000000000000000000000000000000000000000000000000000000001000000001666600000000000000000000000000   050813             00000000000000                                                                  000170
10260524550000131000000900099024048692318326752               000000002300194846510000000000000000000000000906020813231832675200000000230019484651020813000000000833323702505  000000000000000000000000000000000000000000000000000000000000000000000000000000000000000833300000000000000000000000000   050813             00000000000000                                                                  000171
10260524550000131000000900099024048692318328432               000000002300194848130000000000000000000000000906020813231832843200000000230019484813020813000000000833300107001  000000000000000000000000000000000000000000000000000000000000000000000000000000000000000833400000000000010000000000000   050813             00000000000000                                                                  000172
10260524550000131000000900099024048692318327592               000000002300194848480000000000000000000000000906020813231832759200000000230019484848020813000000000833300101552  000000000000000000000000000000000000000000000000000000000000000000000000000000000000000833400000000000010000000000000   050813             00000000000000                                                                  000173
10260524550000131000000900099024048692318332252               000000002300194848800000000000000000000000000906020813231833225200000000230019484880020813000000001666710403216  000000000000000000000000000000000000000000000000000000000000000000000000000001000000001666600000000000000000000000000   050813             00000000000000                                                                  000174
10260524550000131000000900099024048692318330332               000000002300194849100000000000000000000000000906020813231833033200000000230019484910020813000000001400023702505  000000000000000000000000000000000000000000000000000000000000000000000000000000000000001400000000000000000000000000000   050813             00000000000000                                                                  000175
10260524550000131000000900099024048692318331002               000000002300194852830000000000000000000000000906020813231833100200000000230019485283020813000000001316710404071  000000000000000000000000000000000000000000000000000000000000000000000000000001000000001316600000000000000000000000000   050813             00000000000000                                                                  000176
10260524550000131000000900099024048692318328192               000000002300194854450000000000000000000000000906020813231832819200000000230019485445020813000000000833323700368  000000000000000000000000000000000000000000000000000000000000000000000000000000000000000833300000000000000000000000000   050813             00000000000000                                                                  000177
10260524550000131000000900099024048692318331652               000000002300194856230000000000000000000000000906020813231833165200000000230019485623020813000000001316700101270  000000000000000000000000000000000000000000000000000000000000000000000000000001000000001316600000000000000000000000000   050813             00000000000000                                                                  000178
10260524550000131000000900099024048692318332322               000000002300194856580000000000000000000000000906020813231833232200000000230019485658020813000000001250034103027  000000000000000000000000000000000000000000000000000000000000000000000000000000000000001250000000000000000000000000000   050813             00000000000000                                                                  000179
10260524550000131000000900099024048692318327932               000000002300194856900000000000000000000000000906020813231832793200000000230019485690020813000000000666710404116  000000000000000000000000000000000000000000000000000000000000000000000000000001000000000666600000000000000000000000000   050813             00000000000000                                                                  000180
10260524550000131000000900099024048692318330932               000000002300194858600000000000000000000000000906020813231833093200000000230019485860020813000000001666704100413  000000000000000000000000000000000000000000000000000000000000000000000000000001000000001666600000000000000000000000000   050813             00000000000000                                                                  000181
10260524550000131000000900099024048692318329472               000000002300194863440000000000000000000000000906020813231832947200000000230019486344020813000000000987534108397  000000000000000000000000000000000000000000000000000000000000000000000000000000000000000987500000000000000000000000000   050813             00000000000000                                                                  000182
10260524550000131000000900099024048692318328142               000000002300194867860000000000000000000000000906020813231832814200000000230019486786020813000000000666734100139  000000000000000000000000000000000000000000000000000000000000000000000000000000000000000666700000000000000000000000000   050813             00000000000000                                                                  000183
10260524550000131000000900099024048692318330452               000000002300194877580000000000000000000000000906020813231833045200000000230019487758020813000000001466700101202  000000000000000000000000000000000000000000000000000000000000000000000000000000000000001466700000000000000000000000000   050813             00000000000000                                                                  000184
10260524550000131000000900099024048692318327762               000000002300194877820000000000000000000000000906020813231832776200000000230019487782020813000000000833323703393  000000000000000000000000000000000000000000000000000000000000000000000000000000000000000833300000000000000000000000000   050813             00000000000000                                                                  000185
10260524550000131000000900099024048692318326762               000000002300194878200000000000000000000000000906020813231832676200000000230019487820020813000000000833334101546  000000000000000000000000000000000000000000000000000000000000000000000000000000000000000833400000000000010000000000000   050813             00000000000000                                                                  000186
10260524550000131000000900099024048692318325932               000000002300194878630000000000000000000000000906020813231832593200000000230019487863020813000000000666723700091  000000000000000000000000000000000000000000000000000000000000000000000000000000000000000666700000000000000000000000000   050813             00000000000000                                                                  000187
10260524550000131000000900099024048692318329362               0000000023001948807P000000000000000000000000090602081323183293620000000023001948807P020813000000001466734100194  000000000000000000000000000000000000000000000000000000000000000000000000000000000000001466700000000000000000000000000   050813             00000000000000                                                                  000188
10260524550000131000000900099024048692318331032               000000002300194882310000000000000000000000000906020813231833103200000000230019488231020813000000001316723703263  000000000000000000000000000000000000000000000000000000000000000000000000000000000000001316700000000000000000000000000   050813             00000000000000                                                                  000189
10260524550000131000000900099024048692318327572               000000002300194886570000000000000000000000000906020813231832757200000000230019488657020813000000000833334100175  000000000000000000000000000000000000000000000000000000000000000000000000000000000000000833300000000000000000000000000   050813             00000000000000                                                                  000190
10260524550000131000000900099024048692318326792               000000002300194887030000000000000000000000000906020813231832679200000000230019488703020813000000001466734100467  000000000000000000000000000000000000000000000000000000000000000000000000000001000000001466600000000000000000000000000   050813             00000000000000                                                                  000191
10260524550000131000000900099024048692318331012               000000002300194889750000000000000000000000000906020813231833101200000000230019488975020813000000000916700105944  000000000000000000000000000000000000000000000000000000000000000000000000000001000000000916600000000000000000000000000   050813             00000000000000                                                                  000192
10260524550000131000000900099024048692318331322               000000002300194892540000000000000000000000000906020813231833132200000000230019489254020813000000001666734100844  000000000000000000000000000000000000000000000000000000000000000000000000000000000000001666700000000000000000000000000   050813             00000000000000                                                                  000193
10260524550000131000000900099024048692318331852               000000002300194896530000000000000000000000000906020813231833185200000000230019489653020813000000001316734100736  000000000000000000000000000000000000000000000000000000000000000000000000000000000000001316700000000000000000000000000   050813             00000000000000                                                                  000194
10260524550000131000000900099024048692318328792               000000002300194898740000000000000000000000000906020813231832879200000000230019489874020813000000001466734100262  000000000000000000000000000000000000000000000000000000000000000000000000000001000000001466600000000000000000000000000   050813             00000000000000                                                                  000195
10260524550000131000000900099024048692318331812               000000002300194900070000000000000000000000000906020813231833181200000000230019490007020813000000001316723700301  000000000000000000000000000000000000000000000000000000000000000000000000000000000000001316700000000000000000000000000   050813             00000000000000                                                                  000196
10260524550000131000000900099024048692318328732               000000002300194904730000000000000000000000000906020813231832873200000000230019490473020813000000000833334100167  000000000000000000000000000000000000000000000000000000000000000000000000000000000000000833300000000000000000000000000   050813             00000000000000                                                                  000197
10260524550000131000000900099024048692318332722               000000002300194906000000000000000000000000000906020813231833272200000000230019490600020813000000001975000101192  000000000000000000000000000000000000000000000000000000000000000000000000000000000000001975000000000000000000000000000   050813             00000000000000                                                                  000198
10260524550000131000000900099024048692318328552               000000002300194907400000000000000000000000000906020813231832855200000000230019490740020813000000000933323703790  000000000000000000000000000000000000000000000000000000000000000000000000000000000000000933300000000000000000000000000   050813             00000000000000                                                                  000199
1026052455000013100000090009902404869231837818                000000002300194954240000000000000000000000000906020813231837818 00000000230019495424020813000000002500039900909  000000000000000000000000000000000000000000000000000000000000000000000000000000000000002500000000000000000000000000000   050813             00000000000000                                                                  000200
1026052455000013100000090009902404869231838877                000000002300194978260000000000000000000000000906020813231838877 00000000230019497826020813000000000500023702661  000000000000000000000000000000000000000000000000000000000000000000000000000000000000000500000000000000000000000000000   050813             00000000000000                                                                  000201
1026052455000013100000090009902404869231838995                000000002300194980400000000000000000000000000906020813231838995 00000000230019498040020813000000000500003300143  000000000000000000000000000000000000000000000000000000000000000000000000000000000000000500000000000000000000000000000   050813             00000000000000                                                                  000202
1026052455000013100000090009902404869231839066                000000002300194980590000000000000000000000000906020813231839066 00000000230019498059020813000000000625034100174  000000000000000000000000000000000000000000000000000000000000000000000000000000000000000625000000000000000000000000000   050813             00000000000000                                                                  000203
1026052455000013100000090009902404869231839012                000000002300194981050000000000000000000000000906020813231839012 00000000230019498105020813000000000500034109114  000000000000000000000000000000000000000000000000000000000000000000000000000000000000000500000000000000000000000000000   050813             00000000000000                                                                  000204
10260524550000131000000900099024048692318390251               000000002300194981640000000000000000000000000906020813231839025100000000230019498164050813000000000833334100140  000000000000000000000000000000000000000000000000000000000000000000000000000000000000000833400000000000010000000000000   050813             00000000000000                                                                  000205
1026052455000013100000090009902404869231839011                000000002300194981990000000000000000000000000906020813231839011 00000000230019498199020813000000000500034106420  000000000000000000000000000000000000000000000000000000000000000000000000000000000000000500000000000000000000000000000   050813             00000000000000                                                                  000206
1026052455000013100000090009902404869231839464                000000002300194982370000000000000000000000000906020813231839464 00000000230019498237020813000000003950003303282  000000000000000000000000000000000000000000000000000000000000000000000000000000000000003950000000000000000000000000000   050813             00000000000000                                                                  000207
1026052455000013100000090009902404869231839609                000000002300194982450000000000000000000000000906020813231839609 00000000230019498245020813000000001300034101665  000000000000000000000000000000000000000000000000000000000000000000000000000000000000001300000000000000000000000000000   050813             00000000000000                                                                  000208
10260524550000131000000900099024048692318390551               000000002300194984580000000000000000000000000906020813231839055100000000230019498458050813000000000666723700461  000000000000000000000000000000000000000000000000000000000000000000000000000000000000000666700000000000000000000000000   050813             00000000000000                                                                  000209
1026052455000013100000090009902404869231839514                000000002300194985980000000000000000000000000906020813231839514 00000000230019498598020813000000004400039900210  000000000000000000000000000000000000000000000000000000000000000000000000000000000000004400000000000000000000000000000   050813             00000000000000                                                                  000210
1026052455000013100000090009902404869231839023                000000002300194991790000000000000000000000000906020813231839023 00000000230019499179020813000000002000010400249  000000000000000000000000000000000000000000000000000000000000000000000000000000000000002000000000000000000000000000000   050813             00000000000000                                                                  000211
10260524550000131000000900099024048692318394481               000000002300194994030000000000000000000000000906020813231839448100000000230019499403050813000000000916723701998  000000000000000000000000000000000000000000000000000000000000000000000000000000000000000916700000000000000000000000000   050813             00000000000000                                                                  000212
1026052455000013100000090009902404869231839736                000000002300195000610000000000000000000000000906020813231839736 00000000230019500061020813000000000500023701518  000000000000000000000000000000000000000000000000000000000000000000000000000000000000000500000000000000000000000000000   050813             00000000000000                                                                  000213
1026052455000013100000090009902404869231839191                000000002300195002900000000000000000000000000906020813231839191 00000000230019500290020813000000002000003304792  000000000000000000000000000000000000000000000000000000000000000000000000000000000000002000000000000000000000000000000   050813             00000000000000                                                                  000214
1026052455000013100000090009902404869231839044                000000002300195003710000000000000000000000000906020813231839044 00000000230019500371020813000000000500042200022  000000000000000000000000000000000000000000000000000000000000000000000000000000000000000500000000000000000000000000000   050813             00000000000000                                                                  000215
1026052455000013100000090009902404869231839065                0000000023001950038P0000000000000000000000000906020813231839065 0000000023001950038P020813000000000625034100179  000000000000000000000000000000000000000000000000000000000000000000000000000000000000000625000000000000000000000000000   050813             00000000000000                                                                  000216
1026052455000013100000090009902404869231838926                000000002300195005090000000000000000000000000906020813231838926 00000000230019500509020813000000000625034100068  000000000000000000000000000000000000000000000000000000000000000000000000000000000000000625000000000000000000000000000   050813             00000000000000                                                                  000217
1026052455000013100000090009902404869231839581                000000002300195005920000000000000000000000000906020813231839581 00000000230019500592020813000000005000000100386  000000000000000000000000000000000000000000000000000000000000000000000000000000000000005000000000000000000000000000000   050813             00000000000000                                                                  000218
1026052455000013100000090009902404869231838897                000000002300195011300000000000000000000000000906020813231838897 00000000230019501130020813000000000500003301610  000000000000000000000000000000000000000000000000000000000000000000000000000000000000000500000000000000000000000000000   050813             00000000000000                                                                  000219
1026052455000013100000090009902404869231839063                000000002300195013270000000000000000000000000906020813231839063 00000000230019501327020813000000001100000103222  000000000000000000000000000000000000000000000000000000000000000000000000000000000000001100000000000000000000000000000   050813             00000000000000                                                                  000220
1026052455000013100000090009902404869231839015                000000002300195014080000000000000000000000000906020813231839015 00000000230019501408020813000000001100034102000  000000000000000000000000000000000000000000000000000000000000000000000000000000000000001100000000000000000000000000000   050813             00000000000000                                                                  000221
1026052455000013100000090009902404869231838936                000000002300195015640000000000000000000000000906020813231838936 00000000230019501564020813000000000500023702872  000000000000000000000000000000000000000000000000000000000000000000000000000000000000000500000000000000000000000000000   050813             00000000000000                                                                  000222
1026052455000013100000090009902404869231838971                000000002300195021100000000000000000000000000906020813231838971 00000000230019502110020813000000001000034108099  000000000000000000000000000000000000000000000000000000000000000000000000000000000000001000000000000000000000000000000   050813             00000000000000                                                                  000223
1026052455000013100000090009902404869231838976                000000002300195021610000000000000000000000000906020813231838976 00000000230019502161020813000000000500010404050  000000000000000000000000000000000000000000000000000000000000000000000000000000000000000500000000000000000000000000000   050813             00000000000000                                                                  000224
1026052455000013100000090009902404869231838943                0000000023001950217P0000000000000000000000000906020813231838943 0000000023001950217P020813000000000500023700287  000000000000000000000000000000000000000000000000000000000000000000000000000000000000000500000000000000000000000000000   050813             00000000000000                                                                  000225
1026052455000013100000090009902404869231838908                000000002300195023150000000000000000000000000906020813231838908 00000000230019502315020813000000000500039900468  000000000000000000000000000000000000000000000000000000000000000000000000000000000000000500000000000000000000000000000   050813             00000000000000                                                                  000226
10260524550000131000000900099024048692318395641               000000002300195024470000000000000000000000000906020813231839564100000000230019502447050813000000000550023700255  000000000000000000000000000000000000000000000000000000000000000000000000000000000000000550000000000000000000000000000   050813             00000000000000                                                                  000227
10260524550000131000000900099024048692318397431               000000002300195026330000000000000000000000000906020813231839743100000000230019502633050813000000000458334103012  000000000000000000000000000000000000000000000000000000000000000000000000000000000000000458500000000000020000000000000   050813             00000000000000                                                                  000228
1026052455000013100000090009902404869231839452                000000002300195026920000000000000000000000000906020813231839452 00000000230019502692020813000000002750034100390  000000000000000000000000000000000000000000000000000000000000000000000000000000000000002750000000000000000000000000000   050813             00000000000000                                                                  000229
1026052455000013100000090009902404869231839026                000000002300195029780000000000000000000000000906020813231839026 00000000230019502978020813000000000625034100770  000000000000000000000000000000000000000000000000000000000000000000000000000000000000000625000000000000000000000000000   050813             00000000000000                                                                  000230
1026052455000013100000090009902404869231839032                000000002300195030870000000000000000000000000906020813231839032 00000000230019503087020813000000000500023703134  000000000000000000000000000000000000000000000000000000000000000000000000000000000000000500000000000000000000000000000   050813             00000000000000                                                                  000231
1026052455000013100000090009902404869231838905                000000002300195032140000000000000000000000000906020813231838905 00000000230019503214020813000000000500034100444  000000000000000000000000000000000000000000000000000000000000000000000000000000000000000500000000000000000000000000000   050813             00000000000000                                                                  000232
1026052455000013100000090009902404869231839679                000000002300195033110000000000000000000000000906020813231839679 00000000230019503311020813000000000590000104866  000000000000000000000000000000000000000000000000000000000000000000000000000000000000000590000000000000000000000000000   050813             00000000000000                                                                  000233
1026052455000013100000090009902404869231838941                0000000023001950332P0000000000000000000000000906020813231838941 0000000023001950332P020813000000000500039900323  000000000000000000000000000000000000000000000000000000000000000000000000000000000000000500000000000000000000000000000   050813             00000000000000                                                                  000234
1026052455000013100000090009902404869231839694                000000002300195034190000000000000000000000000906020813231839694 00000000230019503419020813000000003950000101204  000000000000000000000000000000000000000000000000000000000000000000000000000000000000003950000000000000000000000000000   050813             00000000000000                                                                  000235
1026052455000013100000090009902404869231838942                000000002300195034510000000000000000000000000906020813231838942 00000000230019503451020813000000000500023700120  000000000000000000000000000000000000000000000000000000000000000000000000000000000000000500000000000000000000000000000   050813             00000000000000                                                                  000236
1026052455000013100000090009902404869231839198                000000002300195037880000000000000000000000000906020813231839198 00000000230019503788020813000000002000034100775  000000000000000000000000000000000000000000000000000000000000000000000000000000000000002000000000000000000000000000000   050813             00000000000000                                                                  000237
1026052455000013100000090009902404869231839164                000000002300195039580000000000000000000000000906020813231839164 00000000230019503958020813000000000500023703708  000000000000000000000000000000000000000000000000000000000000000000000000000000000000000500000000000000000000000000000   050813             00000000000000                                                                  000238
1026052455000013100000090009902404869231839215                000000002300195040830000000000000000000000000906020813231839215 00000000230019504083020813000000002000034108857  000000000000000000000000000000000000000000000000000000000000000000000000000000000000002000000000000000000000000000000   050813             00000000000000                                                                  000239
1026052455000013100000090009902404869231839097                000000002300195044580000000000000000000000000906020813231839097 00000000230019504458020813000000000500023702363  000000000000000000000000000000000000000000000000000000000000000000000000000000000000000500000000000000000000000000000   050813             00000000000000                                                                  000240
1026052455000013100000090009902404869231839007                000000002300195048650000000000000000000000000906020813231839007 00000000230019504865020813000000000500023700136  000000000000000000000000000000000000000000000000000000000000000000000000000000000000000500000000000000000000000000000   050813             00000000000000                                                                  000241
1026052455000013100000090009902404869231839309                000000002300195048730000000000000000000000000906020813231839309 00000000230019504873020813000000003950034100368  000000000000000000000000000000000000000000000000000000000000000000000000000000000000003950000000000000000000000000000   050813             00000000000000                                                                  000242
1026052455000013100000090009902404869231839669                000000002300195050390000000000000000000000000906020813231839669 00000000230019505039020813000000000590003304793  000000000000000000000000000000000000000000000000000000000000000000000000000000000000000590000000000000000000000000000   050813             00000000000000                                                                  000243
1026052455000013100000090009902404869231839558                000000002300195051010000000000000000000000000906020813231839558 00000000230019505101020813000000000500003302233  000000000000000000000000000000000000000000000000000000000000000000000000000000000000000500000000000000000000000000000   050813             00000000000000                                                                  000244
1026052455000013100000090009902404869231839711                0000000023001950511P0000000000000000000000000906020813231839711 0000000023001950511P020813000000001000010402888  000000000000000000000000000000000000000000000000000000000000000000000000000000000000001000000000000000000000000000000   050813             00000000000000                                                                  000245
1026052455000013100000090009902404869231839248                000000002300195051280000000000000000000000000906020813231839248 00000000230019505128020813000000002000023701365  000000000000000000000000000000000000000000000000000000000000000000000000000000000000002000000000000000000000000000000   050813             00000000000000                                                                  000246
10260524550000131000000900099024048692318394791               000000002300195051360000000000000000000000000906020813231839479100000000230019505136050813000000001316734100137  000000000000000000000000000000000000000000000000000000000000000000000000000000000000001316700000000000000000000000000   050813             00000000000000                                                                  000247
1026052455000013100000090009902404869231838881                000000002300195052250000000000000000000000000906020813231838881 00000000230019505225020813000000001000023702199  000000000000000000000000000000000000000000000000000000000000000000000000000000000000001000000000000000000000000000000   050813             00000000000000                                                                  000248
1026052455000013100000090009902404869231839276                000000002300195057130000000000000000000000000906020813231839276 00000000230019505713020813000000003950000101200  000000000000000000000000000000000000000000000000000000000000000000000000000000000000003950000000000000000000000000000   050813             00000000000000                                                                  000249
